:020000040000FA
:060000005DEF32F012007A
:02000600960062
:080008009EAA02D00DEF2EF0BC
:020010001200DC
:06001200A6B2FED71200A9
:08001800F2A402D094EF2DF0D8
:0C0020001200D08E9F8AF28EF28C12002B
:04002C000C00A56DB2
:100030000000000F000018000000A16D0000EE0D90
:10004000000004000000BD610000F60D000001008A
:1000500000009F6D0000F20D0000020000006F6ABA
:1000600000000001000030030000266A00008A0D35
:10007000000049000000046A00001E0E000022007B
:1000800000002667000000060000DE020000E466B3
:1000900000000009000042000000C6660000000EDB
:1000A00000001E000000C0650000000B00000601FB
:0E00B000000036650000000D00008A00000010
:0200BE00D9CF98
:1000C000E6FFE1CFD9FF0A0EE126050EDB6A060E38
:1000D000DB6A070EDB6A080EDB6A090EDB6A0101C8
:1000E000036B046B056B066B0101076B086B096BF7
:1000F0000A6B0601046BDE6ADD6ADECF14F0DDCF29
:1001000015F0180E145C000E155801E39ED0DECFDA
:1001100014F0DDCF15F0050ED89014361536E8062C
:10012000FBE11B0E1426010E1522030E14C0DBFF8B
:10013000040E15C0DBFF020EDB6A200EF36E020E0A
:10014000DBCFF4FFF350F45C35E209EC00F004007F
:10015000020EDB50166E176A200E086E096ADECF9B
:100160000DF0DDCF0EF0BFEC2FF006501624146E0C
:1001700007501720156E14C0E6FF15C0E6FF18ECF7
:1001800031F0E552E552E66E020EDB50E76E030EEB
:10019000DBCFE9FF040EDBCFEAFFE750E926000ED4
:1001A000EA22E552E750EF6E09EC00F00400020E7F
:1001B000DB2AC3D7DECFE9FFDDCFEAFF050ED890FB
:1001C000E936EA36E806FBE11B0EE926010EEA22D3
:1001D0001E0EE926000EEA22EF0402E10101012BC6
:1001E000DECFE9FFDDCFEAFF050ED890E936EA362B
:1001F000E806FBE11B0EE926010EEA221E0EE926A7
:10020000000EEA22EF50030802E10101022BDECFCB
:10021000E9FFDDCFEAFF050ED890E936EA36E806B9
:10022000FBE11B0EE926010EEA221F0EE926000E55
:10023000EA22EF0405E1010EF36E050EF3CFDBFFBA
:10024000DF2A010E01E3DB2A58D701010251000821
:1002500006E2010EF36E080EF3CFDBFF0FD00101B3
:100260000151000806E2010EF36E070EF3CFDBFF2B
:1002700005D0010EF36E060EF3CFDBFF050EDB0497
:1002800005E1010EF36E090EF3CFDBFF0101310E24
:10029000116F0101300E126F0101300E136F010159
:1002A000330E146F0101156B0401060E1D6F09EC6E
:1002B00000F00400E66AE66AE66AE66ABFEC15F05A
:1002C000E552E552E552E55241D80401010E1B6F9B
:1002D000090EDBCFE6FF080EDBCFE6FF070EDBCF14
:1002E000E6FF060EDBCFE6FFBFEC15F0E552E55268
:1002F000E552E5522B0EE66E0F0EE66E010EE66E2F
:10030000E66A180EE66E0F0EE66E020EE66E010E3F
:10031000E66EE66AE66AE66A010EE66EE66AE66A96
:10032000E66AE66A4B0EE66EE66AE66A90EC1FF055
:10033000146E130EE15E14500A0EE15C02E2E16AF3
:10034000E552E16EE552E7CFD9FF1200D9CFE6FFC3
:10035000E1CFD9FF050EE126DF6A010EDB6A020E4E
:10036000DB6A030EDB6A01010251000808E2030E9A
:10037000006F010EF36E020EF3CFDBFF0DD00151C3
:10038000000805E2010E006FDE52DD6E05D0006B45
:10039000010EDF6E030EDB6A040EDB6A180EF36ECD
:1003A000040EDBCFF4FFF350F45C1AE2040EDB50D2
:1003B000200DF3CFE9FFF4CFEAFF1B0EE926010E73
:1003C000EA221F0EE926000EEA22EF0406E1010EE2
:1003D000F36E030EF3CFDBFF03D0040EDB2ADED770
:1003E000030EDBCFE6FF020EDBCFE6FF010EDBCF15
:1003F000E6FFDFCFE6FFBFEC15F0E552E552E55230
:10040000E552050EE15C02E2E16AE552E16EE55279
:10041000E7CFD9FF1200D9CFE6FFE1CFD9FF050E14
:10042000E126DF6A010EDB6A020EDB6A030EDB6A7D
:1004300001010251000808E2030E006F010EF36E85
:10044000020EF3CFDBFF0DD00151000805E2010ED3
:10045000006FDE52DD6E05D0006B010EDF6E030E05
:10046000DB6A030EDBCFE6FF020EDBCFE6FF010EF9
:10047000DBCFE6FFDFCFE6FFBFEC15F0E552E5523C
:10048000E552E5520401010E1B6F146E050EE15C8E
:1004900003E200D0E16AE552E16E1450E552E7CF85
:1004A000D9FF1200D9CFE6FFE1CFD9FF050EE12633
:1004B000DF6A010EDB6A020EDB6A030EDB6AFD0EE9
:1004C000DBCFE6FFFE0EDBCFE6FF160EE66E010E7B
:1004D000E66E8CEC2EF0E552E552E552E55200094D
:1004E00002E0000E15D0030EDBCFE6FF020EDBCFDD
:1004F000E6FF010EDBCFE6FFDFCFE6FFBFEC15F036
:10050000E552E552E552E55204011B6B010E00D0A5
:10051000146E050EE15C02E2E16AE552E16E1450F0
:10052000E552E7CFD9FF1200D9CFE6FFE1CFD9FFDF
:100530000D0EE126300EF36E040EF3CFDBFFD95023
:10054000050FE96EDACFEAFFEE6AEE6AEE6A010E97
:10055000F36E0C0EF3CFDBFF5BEC2FF006C007F160
:1005600007C008F108C009F109C00AF1030EE96EDD
:10057000010EEA6EEE50010107190CE1EE50010187
:10058000081908E1EE500101091904E1EE500101DA
:100590000A1900E101E1BBD007C103F108C104F170
:1005A00009C105F10AC106F1DF6A180EDF5C01E33B
:1005B000A4D0DF50200DF3CFE9FFF4CFEAFF1B0EEC
:1005C000E926010EEA221E0EE926000EEA22EF04B9
:1005D00001E091D0DF50200DF3CFE9FFF4CFEAFF27
:1005E0001B0EE926010EEA221C0EE926000EEA2265
:1005F000EE06000EED5ADF50200DF3CFE9FFF4CFE9
:10060000EAFF1B0EE926010EEA221C0EE926000E67
:10061000EA22E9CF14F0EACF15F0010E14C0DBFF97
:10062000020E15C0DBFF010EDBCFE9FF020EDBCFB0
:10063000EAFF030EEFCFDBFF200EDF02F3501C0FAB
:10064000146E080E14C0DBFF090EDB6A0A0EDB6AAB
:100650000B0EDB6A010EDBCFE9FF020EDBCFEAFFF8
:10066000EF50E66E200EDF02F3501C0FE66EE66AD6
:100670002CEC30F0E552E552E55209EC00F00400B4
:10068000010EE76E010EDBCFE9FF020EDBCFEAFFC2
:10069000E750E926000EEA22030EEFCFDBFF200E23
:1006A000DF02F3501C0F010F146E080E14C0DBFFA5
:1006B000090EDB6A0A0EDB6A0B0EDB6A010EE76EBF
:1006C000010EDBCFE9FF020EDBCFEAFFE750E926A0
:1006D000000EEA22EF50E66E200EDF02F3501C0FF0
:1006E000010FE66EE66A2CEC30F0E552E552E55279
:1006F00009EC00F00400DF2A58D791EC16F001084D
:1007000006E180840101015102E1809280900401A0
:10071000010E2B1901E12C511DE104012D6B2E6BF3
:10072000D950040FE66E000EDA20E66E29EC19F0BF
:10073000E552E552830EE66ED950040FE66E000EC8
:10074000DA20E66EACEC14F0E552E552E552040115
:100750002B6B2C6B80B81ED004012D2B000E2E238A
:10076000D950040FE66E000EDA20E66E29EC19F07F
:10077000E552E552830EE66ED950040FE66E000E88
:10078000DA20E66EACEC14F0E552E552E5520D01CC
:10079000F06BF16B39EC18F00D0EE15C02E2E16AEE
:1007A000E552E16EE552E7CFD9FF1200D9CFE6FF5F
:1007B000E1CFD9FF040EE126FD0EDBCFE9FFFE0EEF
:1007C000DBCFEAFF200EE926000EEA22EF28DF6EDB
:1007D000010EDB6A020EDB6A180EDF5C01E3DF6AE2
:1007E000FD0EDBCFE9FFFE0EDBCFEAFF200EE92690
:1007F000000EEA22EF68030EDB6A180EF36E030E9A
:10080000DBCFF4FFF350F45C02E37CEF09F0180E49
:10081000146E14C00EF0DFCF09F06BEC32F005500F
:10082000DF6EDF50200DF3CFE9FFF4CFEAFF1B0EA0
:10083000E926010EEA221E0EE926000EEA22EF50FA
:1008400010E0DF50200DF3CFE9FFF4CFEAFF1B0EDD
:10085000E926010EEA221F0EE926000EEA22EF50D9
:1008600004E1030EDB2ADF2AC8D7FD0EDBCFE9FF48
:10087000FE0EDBCFEAFFE9CF14F0EACF15F0010E50
:10088000DBCFF3FFDB2AF3500F011424E96E000ED7
:100890001520EA6E530EEF6EFD0EDBCFE9FFFE0E64
:1008A000DBCFEAFFE9CF14F0EACF15F0010EDBCF82
:1008B000F3FFDB2AF3501424E96E000E1520EA6ED4
:1008C000540EEF6EFD0EDBCFE9FFFE0EDBCFEAFF2D
:1008D000E9CF14F0EACF15F0010EDBCFF3FFDB2AEE
:1008E000F3501424E96E000E1520EA6E4E0EEF6EE2
:1008F000FD0EDBCFE9FFFE0EDBCFEAFFE9CF14F000
:10090000EACF15F0010EDBCFF3FFDB2AF3501424FE
:10091000E96E000E1520EA6E3A0EEF6EDF50200DE4
:10092000F3CFE9FFF4CFEAFF1B0EE926010EEA221E
:10093000E9CF16F0EACF17F0020EDBCFF3FFDB2A88
:10094000F3501624E96E000E1720EA6EEF50E66EA3
:10095000FD0EDBCFE9FFFE0EDBCFEAFFE9CF14F09F
:10096000EACF15F0010EDBCFF3FFDB2AF35014249E
:10097000E96E000E1520EA6EE552E750EF6EDF508B
:10098000200DF3CFE9FFF4CFEAFF1B0EE926010E9D
:10099000EA22E9CF16F0EACF17F0020EDBCFF3FF21
:1009A000DB2AF3501624E96E000E1720EA6EEF5092
:1009B000E66EFD0EDBCFE9FFFE0EDBCFEAFFE9CFEF
:1009C00014F0EACF15F0010EDBCFF3FFDB2AF35072
:1009D0001424E96E000E1520EA6EE552E750EF6E22
:1009E000FD0EDBCFE9FFFE0EDBCFEAFFE9CF14F00F
:1009F000EACF15F0010EDBCFF3FFDB2AF35014240E
:100A0000E96E000E1520EA6E3B0EEF6EDF50200DF2
:100A1000F3CFE9FFF4CFEAFF1B0EE926010EEA222D
:100A2000E9CF14F0EACF15F0020EDB501424E96E82
:100A3000000E1520EA6EEF50360A01E1DCD3030AFE
:100A400001E1E6D2010A01E132D2070A01E17ED1D9
:100A5000010A01E19ED0030A01E0E4D3FD0EDBCFE1
:100A6000E9FFFE0EDBCFEAFFE9CF14F0EACF15F085
:100A7000010EDBCFF3FFDB2AF3501424E96E000EE6
:100A80001520EA6E530EEF6EFD0EDBCFE9FFFE0E72
:100A9000DBCFEAFFE9CF14F0EACF15F0010EDBCF90
:100AA000F3FFDB2AF3501424E96E000E1520EA6EE2
:100AB000410EEF6EFD0EDBCFE9FFFE0EDBCFEAFF4E
:100AC000E9CF14F0EACF15F0010EDBCFF3FFDB2AFC
:100AD000F3501424E96E000E1520EA6E460EEF6EF8
:100AE000FD0EDBCFE9FFFE0EDBCFEAFFE9CF14F00E
:100AF000EACF15F0010EDBCFF3FFDB2AF35014240D
:100B0000E96E000E1520EA6E450EEF6EFD0EDBCF8E
:100B1000E9FFFE0EDBCFEAFFE9CF14F0EACF15F0D4
:100B2000010EDBCFF3FFDB2AF3501424E96E000E35
:100B30001520EA6E540EEF6EFD0EDBCFE9FFFE0EC0
:100B4000DBCFEAFFE9CF14F0EACF15F0010EDBCFDF
:100B5000F3FFDB2AF3501424E96E000E1520EA6E31
:100B6000790EEF6EFD0EDBCFE9FFFE0EDBCFEAFF65
:100B7000E9CF14F0EACF15F0010EDBCFF3FFDB2A4B
:100B8000F3501424E96E000E1520EA6E3B0EEF6E52
:100B900049D3FD0EDBCFE9FFFE0EDBCFEAFFE9CF45
:100BA00014F0EACF15F0010EDBCFF3FFDB2AF35090
:100BB0001424E96E000E1520EA6E420EEF6EFD0E53
:100BC000DBCFE9FFFE0EDBCFEAFFE9CF14F0EACF7F
:100BD00015F0010EDBCFF3FFDB2AF3501424E96E8E
:100BE000000E1520EA6E520EEF6EFD0EDBCFE9FF10
:100BF000FE0EDBCFEAFFE9CF14F0EACF15F0010ECD
:100C0000DBCFF3FFDB2AF3501424E96E000E15202E
:100C1000EA6E450EEF6EFD0EDBCFE9FFFE0EDBCF79
:100C2000EAFFE9CF14F0EACF15F0010EDBCFF3FFB6
:100C3000DB2AF3501424E96E000E1520EA6E410EF3
:100C4000EF6EFD0EDBCFE9FFFE0EDBCFEAFFE9CF53
:100C500014F0EACF15F0010EDBCFF3FFDB2AF350DF
:100C60001424E96E000E1520EA6E4B0EEF6EFD0E99
:100C7000DBCFE9FFFE0EDBCFEAFFE9CF14F0EACFCE
:100C800015F0010EDBCFF3FFDB2AF3501424E96EDD
:100C9000000E1520EA6E440EEF6EFD0EDBCFE9FF6D
:100CA000FE0EDBCFEAFFE9CF14F0EACF15F0010E1C
:100CB000DBCFF3FFDB2AF3501424E96E000E15207E
:100CC000EA6E4F0EEF6EFD0EDBCFE9FFFE0EDBCFBF
:100CD000EAFFE9CF14F0EACF15F0010EDBCFF3FF06
:100CE000DB2AF3501424E96E000E1520EA6E570E2D
:100CF000EF6EFD0EDBCFE9FFFE0EDBCFEAFFE9CFA3
:100D000014F0EACF15F0010EDBCFF3FFDB2AF3502E
:100D10001424E96E000E1520EA6E4E0EEF6EFD0EE5
:100D2000DBCFE9FFFE0EDBCFEAFFE9CF14F0EACF1D
:100D300015F0010EDBCFF3FFDB2AF3501424E96E2C
:100D4000000E1520EA6E3B0EEF6E6CD2FD0EDBCF6F
:100D5000E9FFFE0EDBCFEAFFE9CF14F0EACF15F092
:100D6000010EDBCFF3FFDB2AF3501424E96E000EF3
:100D70001520EA6E510EEF6EFD0EDBCFE9FFFE0E81
:100D8000DBCFEAFFE9CF14F0EACF15F0010EDBCF9D
:100D9000F3FFDB2AF3501424E96E000E1520EA6EEF
:100DA000550EEF6EFD0EDBCFE9FFFE0EDBCFEAFF47
:100DB000E9CF14F0EACF15F0010EDBCFF3FFDB2A09
:100DC000F3501424E96E000E1520EA6E410EEF6E0A
:100DD000FD0EDBCFE9FFFE0EDBCFEAFFE9CF14F01B
:100DE000EACF15F0010EDBCFF3FFDB2AF35014241A
:100DF000E96E000E1520EA6E4C0EEF6EFD0EDBCF95
:100E0000E9FFFE0EDBCFEAFFE9CF14F0EACF15F0E1
:100E1000010EDBCFF3FFDB2AF3501424E96E000E42
:100E20001520EA6E490EEF6EFD0EDBCFE9FFFE0ED8
:100E3000DBCFEAFFE9CF14F0EACF15F0010EDBCFEC
:100E4000F3FFDB2AF3501424E96E000E1520EA6E3E
:100E5000540EEF6EFD0EDBCFE9FFFE0EDBCFEAFF97
:100E6000E9CF14F0EACF15F0010EDBCFF3FFDB2A58
:100E7000F3501424E96E000E1520EA6E590EEF6E41
:100E8000FD0EDBCFE9FFFE0EDBCFEAFFE9CF14F06A
:100E9000EACF15F0010EDBCFF3FFDB2AF350142469
:100EA000E96E000E1520EA6E3B0EEF6EBBD1FD0E13
:100EB000DBCFE9FFFE0EDBCFEAFFE9CF14F0EACF8C
:100EC00015F0010EDBCFF3FFDB2AF3501424E96E9B
:100ED000000E1520EA6E4D0EEF6EFD0EDBCFE9FF22
:100EE000FE0EDBCFEAFFE9CF14F0EACF15F0010EDA
:100EF000DBCFF3FFDB2AF3501424E96E000E15203C
:100F0000EA6E450EEF6EFD0EDBCFE9FFFE0EDBCF86
:100F1000EAFFE9CF14F0EACF15F0010EDBCFF3FFC3
:100F2000DB2AF3501424E96E000E1520EA6E540EED
:100F3000EF6EFD0EDBCFE9FFFE0EDBCFEAFFE9CF60
:100F400014F0EACF15F0010EDBCFF3FFDB2AF350EC
:100F50001424E96E000E1520EA6E480EEF6EFD0EA9
:100F6000DBCFE9FFFE0EDBCFEAFFE9CF14F0EACFDB
:100F700015F0010EDBCFF3FFDB2AF3501424E96EEA
:100F8000000E1520EA6E4F0EEF6EFD0EDBCFE9FF6F
:100F9000FE0EDBCFEAFFE9CF14F0EACF15F0010E29
:100FA000DBCFF3FFDB2AF3501424E96E000E15208B
:100FB000EA6E440EEF6EFD0EDBCFE9FFFE0EDBCFD7
:100FC000EAFFE9CF14F0EACF15F0010EDBCFF3FF13
:100FD000DB2AF3501424E96E000E1520EA6E530E3E
:100FE000EF6EFD0EDBCFE9FFFE0EDBCFEAFFE9CFB0
:100FF00014F0EACF15F0010EDBCFF3FFDB2AF3503C
:101000001424E96E000E1520EA6E3B0EEF6E0AD135
:10101000FD0EDBCFE9FFFE0EDBCFEAFFE9CF14F0D8
:10102000EACF15F0010EDBCFF3FFDB2AF3501424D7
:10103000E96E000E1520EA6E500EEF6EFD0EDBCF4E
:10104000E9FFFE0EDBCFEAFFE9CF14F0EACF15F09F
:10105000010EDBCFF3FFDB2AF3501424E96E000E00
:101060001520EA6E520EEF6EFD0EDBCFE9FFFE0E8D
:10107000DBCFEAFFE9CF14F0EACF15F0010EDBCFAA
:10108000F3FFDB2AF3501424E96E000E1520EA6EFC
:101090004F0EEF6EFD0EDBCFE9FFFE0EDBCFEAFF5A
:1010A000E9CF14F0EACF15F0010EDBCFF3FFDB2A16
:1010B000F3501424E96E000E1520EA6E440EEF6E14
:1010C000FD0EDBCFE9FFFE0EDBCFEAFFE9CF14F028
:1010D000EACF15F0010EDBCFF3FFDB2AF350142427
:1010E000E96E000E1520EA6E550EEF6EFD0EDBCF99
:1010F000E9FFFE0EDBCFEAFFE9CF14F0EACF15F0EF
:10110000010EDBCFF3FFDB2AF3501424E96E000E4F
:101110001520EA6E430EEF6EFD0EDBCFE9FFFE0EEB
:10112000DBCFEAFFE9CF14F0EACF15F0010EDBCFF9
:10113000F3FFDB2AF3501424E96E000E1520EA6E4B
:10114000540EEF6EFD0EDBCFE9FFFE0EDBCFEAFFA4
:10115000E9CF14F0EACF15F0010EDBCFF3FFDB2A65
:10116000F3501424E96E000E1520EA6E490EEF6E5E
:10117000FD0EDBCFE9FFFE0EDBCFEAFFE9CF14F077
:10118000EACF15F0010EDBCFF3FFDB2AF350142476
:10119000E96E000E1520EA6E4F0EEF6EFD0EDBCFEE
:1011A000E9FFFE0EDBCFEAFFE9CF14F0EACF15F03E
:1011B000010EDBCFF3FFDB2AF3501424E96E000E9F
:1011C0001520EA6E4E0EEF6EFD0EDBCFE9FFFE0E30
:1011D000DBCFEAFFE9CF14F0EACF15F0010EDBCF49
:1011E000F3FFDB2AF3501424E96E000E1520EA6E9B
:1011F0003B0EEF6E17D0FD0EDBCFE9FFFE0EDBCF0F
:10120000EAFFE9CF14F0EACF15F0010EDBCFF3FFD0
:10121000DB2AF3501424E96E000E1520EA6E230E2B
:10122000EF6E00D0020EDB2ADF50200DF3CFE9FF76
:10123000F4CFEAFF1B0EE926010EEA22E9CF14F0F3
:10124000EACF15F0020EDB501424E96E000E1520D3
:10125000EA6EEF5030E0DF50200DF3CFE9FFF4CF1E
:10126000EAFF1B0EE926010EEA22E9CF16F0EACFCB
:1012700017F0020EDB501624E96E000E1720EA6EFE
:10128000EF50E66EFD0EDBCFE9FFFE0EDBCFEAFF8F
:10129000E9CF14F0EACF15F0010EDB501424E96E0B
:1012A000000E1520EA6EE552E750EF6E010EDB2AC4
:1012B000020EDB2AB9D7FD0EDBCFE9FFFE0EDBCF36
:1012C000EAFFE9CF14F0EACF15F0010EDB50142449
:1012D000E96E000E1520EA6EEF6ADFCF1CF4FD0EFA
:1012E000DBCFE9FFFE0EDBCFEAFF200EE926000E82
:1012F000EA221CC4EFFF00D0040EE15C02E2E16AC6
:10130000E552E16EE552E7CFD9FF1200D9CFE6FFF3
:10131000E1CFD9FF040EE126FD0EDBCFE9FFFE0E83
:10132000DBCFEAFF200EE926000EEA22EF28DF6E6F
:10133000010EDB6A020EDB6A180EDF5C01E3DF6A76
:10134000FD0EDBCFE9FFFE0EDBCFEAFF200EE92624
:10135000000EEA22EF68030EDB6A180EF36E030E2E
:10136000DBCFF4FFF350F45C02E32CEF0FF0180E28
:10137000146E14C00EF0DFCF09F06BEC32F00550A4
:10138000DF6EDF50200DF3CFE9FFF4CFEAFF1B0E35
:10139000E926010EEA221E0EE926000EEA22EF508F
:1013A00010E0DF50200DF3CFE9FFF4CFEAFF1B0E72
:1013B000E926010EEA221F0EE926000EEA22EF04BA
:1013C00004E1030EDB2ADF2AC8D7FD0EDBCFE9FFDD
:1013D000FE0EDBCFEAFFE9CF14F0EACF15F0010EE5
:1013E000DBCFF3FFDB2AF3500F011424E96E000E6C
:1013F0001520EA6E530EEF6EFD0EDBCFE9FFFE0EF9
:10140000DBCFEAFFE9CF14F0EACF15F0010EDBCF16
:10141000F3FFDB2AF3501424E96E000E1520EA6E68
:10142000540EEF6EFD0EDBCFE9FFFE0EDBCFEAFFC1
:10143000E9CF14F0EACF15F0010EDBCFF3FFDB2A82
:10144000F3501424E96E000E1520EA6E4E0EEF6E76
:10145000FD0EDBCFE9FFFE0EDBCFEAFFE9CF14F094
:10146000EACF15F0010EDBCFF3FFDB2AF350142493
:10147000E96E000E1520EA6E3A0EEF6EDF50200D79
:10148000F3CFE9FFF4CFEAFF1B0EE926010EEA22B3
:10149000E9CF16F0EACF17F0020EDBCFF3FFDB2A1D
:1014A000F3501624E96E000E1720EA6EEF50E66E38
:1014B000FD0EDBCFE9FFFE0EDBCFEAFFE9CF14F034
:1014C000EACF15F0010EDBCFF3FFDB2AF350142433
:1014D000E96E000E1520EA6EE552E750EF6EDF5020
:1014E000200DF3CFE9FFF4CFEAFF1B0EE926010E32
:1014F000EA22E9CF16F0EACF17F0020EDBCFF3FFB6
:10150000DB2AF3501624E96E000E1720EA6EEF5026
:10151000E66EFD0EDBCFE9FFFE0EDBCFEAFFE9CF83
:1015200014F0EACF15F0010EDBCFF3FFDB2AF35006
:101530001424E96E000E1520EA6EE552E750EF6EB6
:10154000FD0EDBCFE9FFFE0EDBCFEAFFE9CF14F0A3
:10155000EACF15F0010EDBCFF3FFDB2AF3501424A2
:10156000E96E000E1520EA6E3B0EEF6EDF50200D87
:10157000F3CFE9FFF4CFEAFF1B0EE926010EEA22C2
:10158000E9CF14F0EACF15F0020EDB501424E96E17
:10159000000E1520EA6EEF50360A01E1DCD3030A93
:1015A00001E1E6D2010A01E132D2070A01E17ED16E
:1015B000010A01E19ED0030A01E0E4D3FD0EDBCF76
:1015C000E9FFFE0EDBCFEAFFE9CF14F0EACF15F01A
:1015D000010EDBCFF3FFDB2AF3501424E96E000E7B
:1015E0001520EA6E530EEF6EFD0EDBCFE9FFFE0E07
:1015F000DBCFEAFFE9CF14F0EACF15F0010EDBCF25
:10160000F3FFDB2AF3501424E96E000E1520EA6E76
:10161000410EEF6EFD0EDBCFE9FFFE0EDBCFEAFFE2
:10162000E9CF14F0EACF15F0010EDBCFF3FFDB2A90
:10163000F3501424E96E000E1520EA6E460EEF6E8C
:10164000FD0EDBCFE9FFFE0EDBCFEAFFE9CF14F0A2
:10165000EACF15F0010EDBCFF3FFDB2AF3501424A1
:10166000E96E000E1520EA6E450EEF6EFD0EDBCF23
:10167000E9FFFE0EDBCFEAFFE9CF14F0EACF15F069
:10168000010EDBCFF3FFDB2AF3501424E96E000ECA
:101690001520EA6E540EEF6EFD0EDBCFE9FFFE0E55
:1016A000DBCFEAFFE9CF14F0EACF15F0010EDBCF74
:1016B000F3FFDB2AF3501424E96E000E1520EA6EC6
:1016C000790EEF6EFD0EDBCFE9FFFE0EDBCFEAFFFA
:1016D000E9CF14F0EACF15F0010EDBCFF3FFDB2AE0
:1016E000F3501424E96E000E1520EA6E3B0EEF6EE7
:1016F00049D3FD0EDBCFE9FFFE0EDBCFEAFFE9CFDA
:1017000014F0EACF15F0010EDBCFF3FFDB2AF35024
:101710001424E96E000E1520EA6E420EEF6EFD0EE7
:10172000DBCFE9FFFE0EDBCFEAFFE9CF14F0EACF13
:1017300015F0010EDBCFF3FFDB2AF3501424E96E22
:10174000000E1520EA6E520EEF6EFD0EDBCFE9FFA4
:10175000FE0EDBCFEAFFE9CF14F0EACF15F0010E61
:10176000DBCFF3FFDB2AF3501424E96E000E1520C3
:10177000EA6E450EEF6EFD0EDBCFE9FFFE0EDBCF0E
:10178000EAFFE9CF14F0EACF15F0010EDBCFF3FF4B
:10179000DB2AF3501424E96E000E1520EA6E410E88
:1017A000EF6EFD0EDBCFE9FFFE0EDBCFEAFFE9CFE8
:1017B00014F0EACF15F0010EDBCFF3FFDB2AF35074
:1017C0001424E96E000E1520EA6E4B0EEF6EFD0E2E
:1017D000DBCFE9FFFE0EDBCFEAFFE9CF14F0EACF63
:1017E00015F0010EDBCFF3FFDB2AF3501424E96E72
:1017F000000E1520EA6E440EEF6EFD0EDBCFE9FF02
:10180000FE0EDBCFEAFFE9CF14F0EACF15F0010EB0
:10181000DBCFF3FFDB2AF3501424E96E000E152012
:10182000EA6E4F0EEF6EFD0EDBCFE9FFFE0EDBCF53
:10183000EAFFE9CF14F0EACF15F0010EDBCFF3FF9A
:10184000DB2AF3501424E96E000E1520EA6E570EC1
:10185000EF6EFD0EDBCFE9FFFE0EDBCFEAFFE9CF37
:1018600014F0EACF15F0010EDBCFF3FFDB2AF350C3
:101870001424E96E000E1520EA6E4E0EEF6EFD0E7A
:10188000DBCFE9FFFE0EDBCFEAFFE9CF14F0EACFB2
:1018900015F0010EDBCFF3FFDB2AF3501424E96EC1
:1018A000000E1520EA6E3B0EEF6E6CD2FD0EDBCF04
:1018B000E9FFFE0EDBCFEAFFE9CF14F0EACF15F027
:1018C000010EDBCFF3FFDB2AF3501424E96E000E88
:1018D0001520EA6E510EEF6EFD0EDBCFE9FFFE0E16
:1018E000DBCFEAFFE9CF14F0EACF15F0010EDBCF32
:1018F000F3FFDB2AF3501424E96E000E1520EA6E84
:10190000550EEF6EFD0EDBCFE9FFFE0EDBCFEAFFDB
:10191000E9CF14F0EACF15F0010EDBCFF3FFDB2A9D
:10192000F3501424E96E000E1520EA6E410EEF6E9E
:10193000FD0EDBCFE9FFFE0EDBCFEAFFE9CF14F0AF
:10194000EACF15F0010EDBCFF3FFDB2AF3501424AE
:10195000E96E000E1520EA6E4C0EEF6EFD0EDBCF29
:10196000E9FFFE0EDBCFEAFFE9CF14F0EACF15F076
:10197000010EDBCFF3FFDB2AF3501424E96E000ED7
:101980001520EA6E490EEF6EFD0EDBCFE9FFFE0E6D
:10199000DBCFEAFFE9CF14F0EACF15F0010EDBCF81
:1019A000F3FFDB2AF3501424E96E000E1520EA6ED3
:1019B000540EEF6EFD0EDBCFE9FFFE0EDBCFEAFF2C
:1019C000E9CF14F0EACF15F0010EDBCFF3FFDB2AED
:1019D000F3501424E96E000E1520EA6E590EEF6ED6
:1019E000FD0EDBCFE9FFFE0EDBCFEAFFE9CF14F0FF
:1019F000EACF15F0010EDBCFF3FFDB2AF3501424FE
:101A0000E96E000E1520EA6E3B0EEF6EBBD1FD0EA7
:101A1000DBCFE9FFFE0EDBCFEAFFE9CF14F0EACF20
:101A200015F0010EDBCFF3FFDB2AF3501424E96E2F
:101A3000000E1520EA6E4D0EEF6EFD0EDBCFE9FFB6
:101A4000FE0EDBCFEAFFE9CF14F0EACF15F0010E6E
:101A5000DBCFF3FFDB2AF3501424E96E000E1520D0
:101A6000EA6E450EEF6EFD0EDBCFE9FFFE0EDBCF1B
:101A7000EAFFE9CF14F0EACF15F0010EDBCFF3FF58
:101A8000DB2AF3501424E96E000E1520EA6E540E82
:101A9000EF6EFD0EDBCFE9FFFE0EDBCFEAFFE9CFF5
:101AA00014F0EACF15F0010EDBCFF3FFDB2AF35081
:101AB0001424E96E000E1520EA6E480EEF6EFD0E3E
:101AC000DBCFE9FFFE0EDBCFEAFFE9CF14F0EACF70
:101AD00015F0010EDBCFF3FFDB2AF3501424E96E7F
:101AE000000E1520EA6E4F0EEF6EFD0EDBCFE9FF04
:101AF000FE0EDBCFEAFFE9CF14F0EACF15F0010EBE
:101B0000DBCFF3FFDB2AF3501424E96E000E15201F
:101B1000EA6E440EEF6EFD0EDBCFE9FFFE0EDBCF6B
:101B2000EAFFE9CF14F0EACF15F0010EDBCFF3FFA7
:101B3000DB2AF3501424E96E000E1520EA6E530ED2
:101B4000EF6EFD0EDBCFE9FFFE0EDBCFEAFFE9CF44
:101B500014F0EACF15F0010EDBCFF3FFDB2AF350D0
:101B60001424E96E000E1520EA6E3B0EEF6E0AD1CA
:101B7000FD0EDBCFE9FFFE0EDBCFEAFFE9CF14F06D
:101B8000EACF15F0010EDBCFF3FFDB2AF35014246C
:101B9000E96E000E1520EA6E500EEF6EFD0EDBCFE3
:101BA000E9FFFE0EDBCFEAFFE9CF14F0EACF15F034
:101BB000010EDBCFF3FFDB2AF3501424E96E000E95
:101BC0001520EA6E520EEF6EFD0EDBCFE9FFFE0E22
:101BD000DBCFEAFFE9CF14F0EACF15F0010EDBCF3F
:101BE000F3FFDB2AF3501424E96E000E1520EA6E91
:101BF0004F0EEF6EFD0EDBCFE9FFFE0EDBCFEAFFEF
:101C0000E9CF14F0EACF15F0010EDBCFF3FFDB2AAA
:101C1000F3501424E96E000E1520EA6E440EEF6EA8
:101C2000FD0EDBCFE9FFFE0EDBCFEAFFE9CF14F0BC
:101C3000EACF15F0010EDBCFF3FFDB2AF3501424BB
:101C4000E96E000E1520EA6E550EEF6EFD0EDBCF2D
:101C5000E9FFFE0EDBCFEAFFE9CF14F0EACF15F083
:101C6000010EDBCFF3FFDB2AF3501424E96E000EE4
:101C70001520EA6E430EEF6EFD0EDBCFE9FFFE0E80
:101C8000DBCFEAFFE9CF14F0EACF15F0010EDBCF8E
:101C9000F3FFDB2AF3501424E96E000E1520EA6EE0
:101CA000540EEF6EFD0EDBCFE9FFFE0EDBCFEAFF39
:101CB000E9CF14F0EACF15F0010EDBCFF3FFDB2AFA
:101CC000F3501424E96E000E1520EA6E490EEF6EF3
:101CD000FD0EDBCFE9FFFE0EDBCFEAFFE9CF14F00C
:101CE000EACF15F0010EDBCFF3FFDB2AF35014240B
:101CF000E96E000E1520EA6E4F0EEF6EFD0EDBCF83
:101D0000E9FFFE0EDBCFEAFFE9CF14F0EACF15F0D2
:101D1000010EDBCFF3FFDB2AF3501424E96E000E33
:101D20001520EA6E4E0EEF6EFD0EDBCFE9FFFE0EC4
:101D3000DBCFEAFFE9CF14F0EACF15F0010EDBCFDD
:101D4000F3FFDB2AF3501424E96E000E1520EA6E2F
:101D50003B0EEF6E17D0FD0EDBCFE9FFFE0EDBCFA3
:101D6000EAFFE9CF14F0EACF15F0010EDBCFF3FF65
:101D7000DB2AF3501424E96E000E1520EA6E230EC0
:101D8000EF6E00D0020EDB2ADF50200DF3CFE9FF0B
:101D9000F4CFEAFF1B0EE926010EEA22E9CF14F088
:101DA000EACF15F0020EDB501424E96E000E152068
:101DB000EA6EEF5030E0DF50200DF3CFE9FFF4CFB3
:101DC000EAFF1B0EE926010EEA22E9CF16F0EACF60
:101DD00017F0020EDB501624E96E000E1720EA6E93
:101DE000EF50E66EFD0EDBCFE9FFFE0EDBCFEAFF24
:101DF000E9CF14F0EACF15F0010EDB501424E96EA0
:101E0000000E1520EA6EE552E750EF6E010EDB2A58
:101E1000020EDB2AB9D7FD0EDBCFE9FFFE0EDBCFCA
:101E2000EAFFE9CF14F0EACF15F0010EDB501424DD
:101E3000E96E000E1520EA6EEF6ADFCF1CF4FD0E8E
:101E4000DBCFE9FFFE0EDBCFEAFF200EE926000E16
:101E5000EA221CC4EFFF00D0040EE15C02E2E16A5A
:101E6000E552E16EE552E7CFD9FF1200D9CFE6FF88
:101E7000E1CFD9FF070EE126FE0EDB50200DF3CF98
:101E8000E9FFF4CFEAFF1B0EE926010EEA221E0E3F
:101E9000E926000EEA22EF5033E0FE0EDB50200D63
:101EA000F3CFE9FFF4CFEAFF1B0EE926010EEA2289
:101EB000E9CF14F0EACF15F014C0E6FF15C0E6FF35
:101EC000050EDBCFE6FF060EDBCFE6FF8CEC2EF037
:101ED000E552E552E552E552000912E1FE0EDB50F3
:101EE000200DF3CFE9FFF4CFEAFF1B0EE926010E28
:101EF000EA221F0EE926000EEA22EF0401E184D156
:101F0000FE0EDB50200DF3CFE9FFF4CFEAFF1B0EEE
:101F1000E926010EEA22E9CF14F0EACF15F0050E0A
:101F200014C0DBFF060E15C0DBFF01010051030AE0
:101F300001E193D0020A01E04ED1050EDBCFE6FFAE
:101F4000060EDBCFE6FFDFEC15F0E552E552E76E5B
:101F5000020EE7CFDBFF020EDB50FF0801E17CD071
:101F6000820EE66E050EDBCFE6FF060EDBCFE6FF48
:101F7000ACEC14F0E552E552E5521C0EE66EE66A52
:101F8000E66A020EDB50200DF3CFE9FFF4CFEAFF43
:101F90001B0EE926010EEA22E9CF14F0EACF15F074
:101FA00014C0E6FF15C0E6FF72EC2EF0166E050EAB
:101FB000E15E16500400020EDB50200DF3CF14F04A
:101FC000F4CF15F01B0E1426010E1522030E14C0BB
:101FD000DBFF040E15C0DBFF010EDB6A200EF36E83
:101FE000010EDBCFF4FFF350F45C25E2010EDB5071
:101FF000E76E030EDBCFE9FF040EDBCFEAFFE7500D
:10200000E926000EEA22EF50E66E010EDBCFE6FF76
:10201000020EDB50200DF350E552E724E66EE66A2F
:102020002CEC30F0E552E552E55209EC00F00400EA
:10203000010EDB2AD3D7010101510DE10101006B33
:10204000E66AE66AE66A010EE66EBFEC15F0E55256
:10205000E552E552E552D8D0BFD0050EDBCFE6FF02
:10206000060EDBCFE6FFDFEC15F0E552E552E76E3A
:10207000020EE7CFDBFF020EDB50FF0801E1AAD022
:10208000820EE66E050EDBCFE6FF060EDBCFE6FF27
:10209000ACEC14F0E552E552E5521C0EE66EE66A31
:1020A000E66A020EDB50200DF3CFE9FFF4CFEAFF22
:1020B0001B0EE926010EEA22E9CF14F0EACF15F053
:1020C00014C0E6FF15C0E6FF72EC2EF0166E050E8A
:1020D000E15E16500400020EDB50200DF3CF14F029
:1020E000F4CF15F01B0E1426010E1522030E14C09A
:1020F000DBFF040E15C0DBFF010EDB6A200EF36E62
:10210000010EDBCFF4FFF350F45C25E2010EDB504F
:10211000E76E030EDBCFE9FF040EDBCFEAFFE750EB
:10212000E926000EEA22EF50E66E010EDBCFE6FF55
:10213000020EDB50200DF350E552E724E66EE66A0E
:102140002CEC30F0E552E552E55209EC00F00400C9
:10215000010EDB2AD3D70101025120E10101015117
:102160000EE10101006BE66AE66AE66A010EE66EC0
:10217000BFEC15F0E552E552E552E5520ED00101F3
:10218000010E006FE66AE66A010EE66EE66ABFECD3
:1021900015F0E552E552E552E5521BD0010101511F
:1021A0000CE1E66A010EE66EE66AE66ABFEC15F03F
:1021B000E552E552E552E5520CD0E66A010EE66EB4
:1021C000010EE66EE66ABFEC15F0E552E552E55207
:1021D000E5521AD001D000D0DF6A180EDF5C14E29D
:1021E000DF50200DF3CFE9FFF4CFEAFF1B0EE92605
:1021F000010EEA221F0EE926000EEA22EF0402E198
:10220000808602D0DF2AE9D7070EE15C02E2E16AAC
:10221000E552E16EE552E7CFD9FF1200D9CFE6FFD4
:10222000E1CFD9FF050EE126DF6A180EDF5C33E24D
:10223000DF50200DF3CFE9FFF4CFEAFF1B0EE926B4
:10224000010EEA221E0EE926000EEA22EF5021E0DE
:10225000DF50200DF3CFE9FFF4CFEAFF1B0EE92694
:10226000010EEA22E9CF14F0EACF15F014C0E6FF20
:1022700015C0E6FFFD0EDBCFE6FFFE0EDBCFE6FF6F
:102280008CEC2EF0E552E552E552E552000901E1F1
:10229000E2D0DF2ACAD7DF6A180EDF5C01E3D5D0AF
:1022A000DF50200DF3CFE9FFF4CFEAFF1B0EE92644
:1022B000010EEA221E0EE926000EEA22EF5001E08E
:1022C000C2D0DF50200DF3CFE9FFF4CFEAFF1B0EA1
:1022D000E926010EEA221E0EE926000EEA22010E70
:1022E000EF6E060EF66E000EF76E0900F5CF14F0D5
:1022F0000800F5CF15F0DF50200DF3CFE9FFF4CF44
:10230000EAFF1B0EE926010EEA221C0EE926000E4A
:10231000EA2214C0EEFF15C0EDFFDF50200DF3CF11
:10232000E9FFF4CFEAFF1B0EE926010EEA221F0E99
:10233000E926000EEA22010EEF6EFD0EDBCFE6FF6E
:10234000FE0EDBCFE6FFDF50200DF3CFE9FFF4CF29
:10235000EAFF1B0EE926010EEA22E9CF14F0EACFCC
:1023600015F014C0E6FF15C0E6FFACEC2EF0E55208
:10237000E552E552E552DF50200DF3CF14F0F4CFD3
:1023800015F01B0E1426010E1522030E14C0DBFFE0
:10239000040E15C0DBFF010EDB6A200EF36E010E8A
:1023A000DBCFF4FFF350F45C24E2010EDB50E76E68
:1023B000030EDBCFE9FF040EDBCFEAFFE750E9268F
:1023C000000EEA22EF50E66E010EDBCFE6FF200E94
:1023D000DF02F350E552E724E66EE66A2CEC30F0BB
:1023E000E552E552E55209EC00F00400010EDB2A4B
:1023F000D4D70101012B010102510CE1010EE66E5F
:10240000E66A010EE66EE66ABADBE552E552E5528F
:10241000E5520CD0010EE66E010EE66E010EE66E80
:10242000E66AADDBE552E552E552E552800EE66E16
:10243000FD0EDBCFE6FFFE0EDBCFE6FF8DDAE552C9
:10244000E552E55202D0DF2A27D70101025103E10C
:102450000101010E006F050EE15C02E2E16AE55246
:10246000E16EE552E7CFD9FF1200D9CFE6FFE1CF09
:10247000D9FF050EE126020EE76EFD0EDBCFE9FF68
:10248000FE0EDBCFEAFFE750E926000EEA22EF500E
:1024900030080DE1820EE66EFD0EDBCFE6FFFE0E8C
:1024A000DBCFE6FF59DAE552E552E5528AD1DF6A21
:1024B000180EDF5C43E2DF50200DF3CFE9FFF4CFCD
:1024C000EAFF1B0EE926010EEA221E0EE926000E87
:1024D000EA22EF5031E0DF50200DF3CFE9FFF4CFD7
:1024E000EAFF1B0EE926010EEA22E9CF14F0EACF3B
:1024F00015F014C0E6FF15C0E6FFFD0EDBCFE6FFCA
:10250000FE0EDBCFE6FF8CEC2EF0E552E552E552F5
:10251000E552000911E1DF50200DF3CFE9FFF4CFC0
:10252000EAFF1B0EE926010EEA221F0EE926000E25
:10253000EA22EF0401E145D1DF2ABAD701010051B7
:10254000030A01E18AD0020A01E03AD1DF6A180EDB
:10255000DF5C01E381D0FD0EDBCFE6FFFE0EDBCFBB
:10256000E6FF2DDBE552E552E76E020EE7CFDBFF1B
:10257000020EDB50FF086EE01C0EE66EE66AE66AAD
:10258000020EDB50200DF3CFE9FFF4CFEAFF1B0E64
:10259000E926010EEA22E9CF14F0EACF15F014C0C3
:1025A000E6FF15C0E6FF72EC2EF0166E050EE15E3A
:1025B00016500400020EDB50200DF3CF14F0F4CFC0
:1025C00015F01B0E1426010E1522030E14C0DBFF9E
:1025D000040E15C0DBFF010EDB6A200EF36E010E48
:1025E000DBCFF4FFF350F45C25E2010EDB50E76E25
:1025F000030EDBCFE9FF040EDBCFEAFFE750E9264D
:10260000000EEA22EF50E66E010EDBCFE6FF020E6F
:10261000DB50200DF350E552E724E66EE66A2CEC21
:1026200030F0E552E552E55209EC00F00400010EED
:10263000DB2AD3D7010101510CE10101006BE66AED
:10264000E66AE66A010EE66E9ADAE552E552E5526E
:10265000E552B7D0DF2A7BD7B4D0DF6A180EDF5C33
:1026600001E3ADD0FD0EDBCFE6FFFE0EDBCFE6FFD4
:10267000A6DAE552E552E76E020EE7CFDBFF020E67
:10268000DB50FF0801E199D01C0EE66EE66AE66AAF
:10269000020EDB50200DF3CFE9FFF4CFEAFF1B0E53
:1026A000E926010EEA22E9CF14F0EACF15F014C0B2
:1026B000E6FF15C0E6FF72EC2EF0166E050EE15E29
:1026C00016500400020EDB50200DF3CF14F0F4CFAF
:1026D00015F01B0E1426010E1522030E14C0DBFF8D
:1026E000040E15C0DBFF010EDB6A200EF36E010E37
:1026F000DBCFF4FFF350F45C25E2010EDB50E76E14
:10270000030EDBCFE9FF040EDBCFEAFFE750E9263B
:10271000000EEA22EF50E66E010EDBCFE6FF020E5E
:10272000DB50200DF350E552E724E66EE66A2CEC10
:1027300030F0E552E552E55209EC00F00400010EDC
:10274000DB2AD3D7010102511EE1010101510DE144
:102750000101006BE66AE66AE66A010EE66E0FDAD0
:10276000E552E552E552E5520DD00101010E006F30
:10277000E66AE66A010EE66EE66A01DAE552E552BD
:10278000E552E55219D0010101510BE1E66A010E53
:10279000E66EE66AE66AF3D9E552E552E552E5529D
:1027A0000BD0E66A010EE66E010EE66EE66AE7D928
:1027B000E552E552E552E55204D0DF2A4FD701D069
:1027C00000D0050EE15C02E2E16AE552E16EE552FD
:1027D000E7CFD9FF1200D9CFE6FFE1CFD9FF020E34
:1027E000E12606010451035D0BE1FD0EDBCFE9FF9D
:1027F000FE0EDBCFEAFFEE6AED6A010EDB6A1BD04C
:102800000351380DF3CF14F0F4CF15F0060E142653
:10281000060E152214C0E6FF15C0E6FFCDEC2EF023
:10282000E552E552010EF3CFDBFF0601032B0D0E3F
:10283000035D01E3036B010EDB50146E020EE15CDD
:1028400003E200D0E16AE552E16E1450E552E7CFB1
:10285000D9FF1200D9CFE6FFE1CFD9FF060100056D
:1028600002E1000E0AD0010E006FFE0EDBCF02F671
:10287000FD0EDBCF01F6010E00D0E552E7CFD9FF08
:102880001200D9CFE6FFE1CFD9FFE652FE0EDB50B2
:10289000200DF3CFE9FFF4CFEAFF1B0EE926010E6E
:1028A000EA221F0EE926000EEA22EF6A810EE66E8A
:1028B000FE0EDB50200DF3CFE9FFF4CFEAFF1B0E35
:1028C000E926010EEA22E9CF14F0EACF15F014C090
:1028D000E6FF15C0E6FF40D8E552E552E552FE0E90
:1028E000DB50200DF3CFE9FFF4CFEAFF1B0EE92602
:1028F000010EEA221F0EE926000EEA22EF50E66ED4
:10290000FE0EDB50200DF3501F0FE66EE66A2CEC36
:1029100030F0E552E552E55209EC00F00400DF6AC0
:10292000180EDF5C13E2DF50200DF3CFE9FFF4CF88
:10293000EAFF1B0EE926010EEA221F0EE926000E11
:10294000EA22EF0401E103D0DF2AEAD78096E552BC
:10295000E552E7CFD9FF1200D9CFE6FFE1CFD9FF8B
:10296000E652DF6AFC0EDB50830852E1DF6A020E9A
:10297000DF5C4DE2FD0EDBCFE9FFFE0EDBCFEAFFB1
:10298000EFCF16F016C017F0166A06010451380D85
:10299000F3CF14F0F4CF15F0060E1426060E152210
:1029A000DF50020D1450F324E96E1550F420EA6E46
:1029B00016C0EEFF17C0EDFFFD0EDB2AFE0E01E391
:1029C000DB2AFD0EDBCFE9FFFE0EDBCFEAFFEF5087
:1029D000166E176A0451380DF3CF14F0F4CF15F0CA
:1029E000060E1426060E1522DF50020D1450F32495
:1029F000E96E1550F420EA6E1650EE121750ED12E3
:102A0000FD0EDB2AFE0E01E3DB2ADF2AB0D790D0D1
:102A1000FC0EDBCF16F016C017F0166A0601045143
:102A2000380DF3CF14F0F4CF15F0060E1426060E71
:102A30001522DF50020D1450F324E96E1550F420D6
:102A4000EA6E16C0EEFF17C0EDFFFD0EDBCFE9FF0B
:102A5000FE0EDBCFEAFFEF506BE0FD0EDBCFE9FFB0
:102A6000FE0EDBCFEAFFEF50166E176A0601045127
:102A7000380DF3CF14F0F4CF15F0060E1426060E21
:102A80001522DF50020D1450F324E96E1550F42086
:102A9000EA6E1650EE121750ED12FD0EDB2AFE0EF6
:102AA00001E3DB2ADF2AFD0EDBCFE9FFFE0EDBCFE1
:102AB000EAFFEF5016E10451380DF3CF14F0F4CFD4
:102AC00015F0060E1426060E1522DF50020D1450C6
:102AD000F324E96E1550F420EA6EEE6AED6A28D010
:102AE00021D0FD0EDBCFE9FFFE0EDBCFEAFFEFCFFB
:102AF00016F016C017F0166A0451380DF3CF14F013
:102B0000F4CF15F0060E1426060E1522DF50020D26
:102B10001450F324E96E1550F420EA6E16C0EEFF4F
:102B200017C0EDFFFD0EDB2AFE0E01E3DB2A8DD779
:102B300006010451380DF3CF14F0F4CF15F0060E52
:102B40001426060E1522DF50020D1450F324E96EF0
:102B50001550F420EA6EEE6AED6A0451EA6A1E0F1F
:102B6000E96E040EEA22DFCFEFFF042B0D0E045DA9
:102B700001E3046BE552E552E7CFD9FF1200D9CF4C
:102B8000E6FFE1CFD9FFFE0EDB50E8B08080E8A081
:102B90008090FD0EDB50E8B08082E8A08092FC0EB1
:102BA000DB50E8B08084E8A08094FB0EDB50E8B0F6
:102BB0008086E8A08096E552E7CFD9FF1200D9CFF2
:102BC000E6FFE1CFD9FF040EE126DF6A180EDF5CD5
:102BD00001E399D0DF50200DF3CFE9FFF4CFEAFFF6
:102BE0001B0EE926010EEA221E0EE926000EEA223D
:102BF000EF5001E186D0DF50200DF3CFE9FFF4CF95
:102C0000EAFF1B0EE926010EEA221F0EE926000E3E
:102C1000EA22EF0476E0DF50200DF3CFE9FFF4CF96
:102C2000EAFF1B0EE926010EEA22E9CF14F0EACFF3
:102C300015F014C0E6FF15C0E6FFFD0EDBCFE6FF82
:102C4000FE0EDBCFE6FF8CEC2EF0E552E552E552AE
:102C5000E552000956E1DF50200DF3CFE9FFF4CF34
:102C6000EAFF1B0EE926010EEA221E0EE926000EDF
:102C7000EA22EF0403E10101010713D0DF50200D28
:102C8000F3CFE9FFF4CFEAFF1B0EE926010EEA229B
:102C90001E0EE926000EEA22EF50030802E10101B0
:102CA0000207DF50200DF3CFE9FFF4CFEAFF1B0E40
:102CB000E926010EEA221E0EE926000EEA22EF6A3C
:102CC000DF50200DF3CFE9FFF4CFEAFF1B0EE9261A
:102CD000010EEA221C0EE926000EEA22EE6AED6AD7
:102CE000DF50200DF3CFE9FFF4CFEAFF1B0EE926FA
:102CF000010EEA221F0EE926000EEA22EF6ADF50DB
:102D000004D0DF2A63D7FF0E00D0146E040EE15CFE
:102D100002E2E16AE552E16E1450E552E7CFD9FFD5
:102D20001200D9CFE6FFE1CFD9FF020EE126010E56
:102D3000DB6ADF6A180EDF5C5BE2DF50200DF3CF49
:102D4000E9FFF4CFEAFF1B0EE926010EEA221E0E70
:102D5000E926000EEA22EF0449E1DF50200DF3CF0F
:102D6000E9FFF4CFEAFF1B0EE926010EEA221C0E52
:102D7000E926000EEA22EE50ED1038E10101022BA7
:102D800001010107DF50200DF3CFE9FFF4CFEAFF87
:102D90001B0EE926010EEA221E0EE926000EEA228B
:102DA000030EEF6EDF50200DF3CFE9FFF4CFEAFF03
:102DB0001B0EE926010EEA221E0EE926000EEA226B
:102DC000EF50E66E200EDF02F3501E0FE66EE66A4D
:102DD0002CEC30F0E552E552E55209EC00F004002D
:102DE0000101030E006FDE52010EDD6EDF2AA2D755
:102DF000010EDB5000D0146E020EE15C02E2E16ACB
:102E0000E552E16E1450E552E7CFD9FF1200D9CF59
:102E1000E6FFE1CFD9FFE652DF6A180EDF5C41E240
:102E2000DF50200DF3CFE9FFF4CFEAFF1B0EE926B8
:102E3000010EEA221E0EE926000EEA22EF502FE0D4
:102E4000DF50200DF3CFE9FFF4CFEAFF1B0EE92698
:102E5000010EEA22E9CF14F0EACF15F014C0E6FF24
:102E600015C0E6FFFD0EDBCFE6FFFE0EDBCFE6FF73
:102E70008CEC2EF0E552E552E552E55200090FE1E7
:102E8000DF50200DF3CFE9FFF4CFEAFF1B0EE92658
:102E9000010EEA221F0EE926000EEA22EF6ADF2A5F
:102EA000BCD7E552E552E7CFD9FF1200D9CFE6FFF4
:102EB000E1CFD9FFFD0EDBCFE6FFFE0EDBCFE6FF55
:102EC000110EE66E010EE66E8CEC2EF0E552E55228
:102ED000E552E552000902E0000E02D0010E00D0DA
:102EE000E552E7CFD9FF1200D9CFE6FFE1CFD9FFF6
:102EF000020EE1260101006B0101016B0101026B71
:102F00000101036B046B056B066B0101076B086B1A
:102F1000096B0A6B04011C6B0601046B0601036B51
:102F2000DE6ADD6ADECF14F0DDCF15F0180E145C1A
:102F3000000E155860E2DECFE9FFDDCFEAFF050E97
:102F4000D890E936EA36E806FBE11B0EE926010EC9
:102F5000EA221E0EE926000EEA22EF6ADECFE9FF22
:102F6000DDCFEAFF050ED890E936EA36E806FBE148
:102F70001B0EE926010EEA221C0EE926000EEA22AB
:102F8000EE6AED6ADECFE9FFDDCFEAFF050ED890ED
:102F9000E936EA36E806FBE11B0EE926010EEA22D5
:102FA0001F0EE926000EEA22EF6A1C0EE66EE66AA4
:102FB000E66ADECFE9FFDDCFEAFF050ED890E936FD
:102FC000EA36E806FBE11B0EE926010EEA22E9CF0C
:102FD00014F0EACF15F014C0E6FF15C0E6FF72EC5E
:102FE0002EF0166E050EE15E16500400DF2A010E6B
:102FF00001E3DB2A97D7DE6ADD6ADECF14F0DDCF8E
:1030000015F0000E145C000E155812E2E66ADECFD1
:10301000E6FFDDCFE6FF2CEC30F0E552E552E5525D
:1030200009EC00F00400DF2A010E01E3DB2AE5D7FA
:1030300004011B050BE1E66AE66AE66A010EE66E2C
:103040009EDDE552E552E552E55209D0E66AE66AB0
:10305000E66AE66A94DDE552E552E552E552020E73
:10306000E15C02E2E16AE552E16EE552E7CFD9FFA9
:103070001200D9CFE6FFE1CFD9FFE6524FEC21F0A5
:10308000DF6E0D01EE51DF5C04E0EF51DF5C01E02B
:103090007AD004012F51010A39E0010A01E073D00E
:1030A00006010451055D2EE00551380DF3CF14F0F3
:1030B000F4CF15F0060E1426060E152214C0E6FFF6
:1030C00015C0E6FF0551EA6A1E0FE96E040EEA22FA
:1030D000EF50E66EE66A000EE66EE66A100EE66EE9
:1030E000010EE66E180EE66E0F0EE66E23EC20F073
:1030F000166E0A0EE15E16500601052B0D0E055DDB
:1031000001E3056B0401010E2F6F3DD05BEC2FF046
:1031100001010B51065C146E0C510758156E0D51D0
:103120000858166E0E510958176ED880050E1454A3
:10313000000E1554000E1654000E175421E22B0EEB
:10314000E66E040EE66E010EE66EE66A000EE66EB0
:10315000E66A010EE66EE66E180EE66E0F0EE66E7D
:1031600023EC20F0146E0A0EE15E14505BEC2FF09D
:1031700006C00BF107C00CF108C00DF109C00EF13B
:1031800004012F6B00D0E552E552E7CFD9FF1200C2
:10319000D9CFE6FFE1CFD9FFE652DF6ADF50DF2A61
:1031A000146E156A14BE1568FD0EDB501424E96E0A
:1031B000FE0EDB501520EA6EEF5001E0EFD7DF285E
:1031C000146E156A14BE1568FD0EDB501424E96EEA
:1031D000FE0EDB501520EA6EEF6ADFCF14F0000E12
:1031E000E76E1418E8AE02D0143403D0E750D8804C
:1031F000145421E2DF04166E176A16BE1768FD0E1E
:10320000DB501624E96EFE0EDB501720EA6EEF50FD
:10321000E66EDFCF14F0156A14BE1568FD0EDB50A4
:103220001424E96EFE0EDB501520EA6EE552E750DD
:10323000EF6EDF06D2D7FD0EDBCFE9FFFE0EDBCF50
:10324000EAFFFC0EDBCFEFFFE552E552E7CFD9FFF7
:103250001200D9CFE6FFE1CFD9FFFD0EDBCFE9FFAA
:10326000FE0EDBCFEAFF830EEF6E010EE76EFD0E62
:10327000DBCFE9FFFE0EDBCFEAFFE750E926000EC9
:10328000EA22EF6A2EC414F0156A020EE76EFD0EF4
:10329000DBCFE9FFFE0EDBCFEAFFE750E926000EA9
:1032A000EA2214C0EFFF030EE76EFD0EDBCFE9FF4D
:1032B000FE0EDBCFEAFFE750E926000EEA222DC41E
:0A32C000EFFFE552E7CFD9FF12003F
:0632CA000D01D351030ABF
:1032D00010E0010A0AE0030A01E00FD009014151A0
:1032E00002E1010E416F0AD808D0BBDA0901416F33
:1032F00004D09CDA0901416B00D01200D9CFE6FF5F
:10330000E1CFD9FF030EE126DE6ADD6A0D01E65149
:103310000D01F21904E10D01E7510D01F31902E16C
:10332000F26BF36B130E086E096AF2CD0DF0F3CD5C
:103330000EF0BFEC2FF00D01E8510624EA6FE951C1
:103340000720EB6FEACDE9FFEBCDEAFF120EEB5061
:10335000E76E020EE7CFDBFFDB0412E0D9CFE9FF17
:10336000DACFEAFFEE2A000EED22EECF14F0EDCF19
:1033700015F0E651141802E1E751151801E108D0E3
:103380000D01F22B000EF323020EDB50BFE00AD832
:10339000030EE15C02E2E16AE552E16EE552E7CF3D
:1033A000D9FF1200D9CFE6FFE1CFD9FF030EE12606
:1033B000EACDE9FFEBCDEAFF080EE926000EEA228E
:1033C000EE2AEF22EACDE9FFEBCDEAFFEF5009014B
:1033D000006FEACDE9FFEBCDEAFF010EEB50016F84
:1033E000EACDE9FFEBCDEAFF020EE926000EEA2264
:1033F000EECF14F0EFCF15F015C014F0156A14C01D
:1034000002F9EACDE9FFEBCDEAFF020EE926000E54
:10341000EA22EECF14F0EFCF15F01450036FEACD8F
:10342000E9FFEBCDEAFF010EEB50050808E0EACD1D
:10343000E9FFEBCDEAFF010EEB50060827E1EACDEC
:10344000E9FFEBCDEAFF060EE926000EEA22EECFF9
:1034500016F0EFCF17F0010ED89016361736E806A3
:10346000FBE10D01EC511624E96EED511720EA6ED7
:10347000EECF14F0EFCF15F0EACDE9FFEBCDEAFF88
:10348000040E14C0EBFF050E15C0EBFFEACDE9FFFB
:10349000EBCDEAFF040EE926000EEA22EECF14F08F
:1034A000EFCF15F015C014F0156A14C004F9EACD79
:1034B000E9FFEBCDEAFF040EE926000EEA22EECF8B
:1034C00014F0EFCF15F014500901056FEACDE9FFB4
:1034D000EBCDEAFF010EEB50100803E121D9DF6EBE
:1034E0000DD0EACDE9FFEBCDEAFF010EEB500F085E
:1034F00003E14FD8DF6E02D0080EDF6E020EDF5CF4
:10350000E66E70EC20F0E552DE52F3CFDEFFF4CF32
:10351000DDFFDD52010EDBCF14F0020EDBCF15F024
:1035200015C014F0156ADF5CEA6A000FE96E090E37
:10353000EA2214C0EFFFFF0EE76E010EDBCF14F09E
:10354000020EDBCF15F0E7501416156ADF04EA6AA5
:10355000000FE96E090EEA2214C0EFFFDFCFE6FF8D
:1035600007EC21F0E5520D01020ED36FEACDE9FF21
:10357000EBCDEAFFEF50000902E167EC1FF0030E0C
:10358000E15C02E2E16AE552E16EE552E7CFD9FF84
:103590001200D9CFE6FFE1CFD9FF080EE126EACD30
:1035A000E9FFEBCDEAFF040EE926000EEA22EECF9A
:1035B00014F0EFCF15F0040E0F0B05E0D890153284
:1035C0001432E806FBE11450DF6E020EDF02010E3A
:1035D000F3CFDBFF020EDB6A070EF36E030EF3CFB1
:1035E000DBFFEACDE9FFEBCDEAFF040EE926000E92
:1035F000EA22EECF14F0EFCF15F00001156A0F0E9E
:103600001416000ED8801454000E155403E2DF2A5D
:10361000010EDB2A010EDBCF06F9070EDB6ADF5055
:10362000F36E070EDBCFF4FFF350F45C64E2070E99
:10363000DB50166E176AEACDE9FFEBCDEAFF060E06
:10364000E926000EEA221650EE24146E1750EE20E2
:10365000156E010ED89014361536E806FBE10D0103
:10366000EC511424E96EED511520EA6E040EEECFF4
:10367000DBFF050EEDCFDBFFFF0EE76E040EDBCFA9
:1036800014F0050EDBCF15F0E7501416156A030E83
:10369000DB50EA6A000FE96E090EEA2214C0EFFF60
:1036A000020EDB2A010EDB50F36E020EDBCFF4FFBD
:1036B000F350F45C1DE2040EDBCF14F0050EDBCFFB
:1036C00015F015C014F0156A030EDB28EA6A000F26
:1036D000E96E090EEA2214C0EFFF020EDB2A146E17
:1036E000030EDBCFE7FF1450E726030EE7CFDBFF27
:1036F000070EDB2A94D7010EDB50090FE76E060E8A
:10370000E7CFDBFFDB50146E080EE15C03E200D074
:10371000E16AE552E16E1450E552E7CFD9FF12009D
:10372000D9CFE6FFE1CFD9FF070EE126EACDE9FFC9
:10373000EBCDEAFF040EE926000EEA22EECF14F0EC
:10374000EFCF15F0010ED89014361536E806FBE1E0
:103750001450DF6EDE52070EDD6EEACDE9FFEBCDD1
:10376000EAFF040EE926000EEA22020EEFCFDBFF8D
:10377000DFCF06F9050EDB6A020EDB50F36E050E95
:10378000DBCFF4FFF350F45C3DE2050EDB50020D9D
:103790000D01EC51F324E96EED51F420EA6E030EB5
:1037A000EECFDBFF040EEDCFDBFF030EDBCF14F01B
:1037B000040EDBCF15F015C014F0156A010EDB50B6
:1037C000EA6A000FE96E090EEA2214C0EFFF010E4B
:1037D000DB2AFF0EE76E030EDBCF14F0040EDBCF07
:1037E00015F0E7501416156A010EDB50EA6A000F57
:1037F000E96E090EEA2214C0EFFF010EDB2A050E66
:10380000DB2ABAD7090EDF24E76E060EE7CFDBFF0F
:10381000DB50146E070EE15C03E200D0E16AE55272
:10382000E16E1450E552E7CFD9FF12005BEC2FF0A8
:103830000D01E251065C146EE3510758156EE45118
:103840000858166EE5510958176E1450DA5D155078
:10385000DB591650DC591750DD5902E2010ED36FC7
:103860001200D9CFE6FFE1CFD9FF020EE126DF6ECD
:10387000C6EC29F0000954E0010EDB6AC6EC29F021
:10388000000936E0400E0901405D03E1DE52010E01
:10389000DD6EE3EC29F0E66E09014051EA6A000FA3
:1038A000E96E090EEA22E552E750EF6E402BDECDBD
:1038B00014F0DFCD15F00A0E0D6E0E6A14C008F07C
:1038C00015C009F027EC32F008C014F009C015F05B
:1038D000166A176A020ED890143615361636173641
:1038E000E806F9E11450E66E86EC32F0E552C6D7F0
:1038F000050E0901405D03E3010EDB5002E08EDAA4
:103900000ED0EACDE9FFEBCDEAFFEF50005D04E019
:1039100085DA0901406B03D030D80901406B1FD014
:103920005BEC2FF00D01E251065C146EE351075879
:10393000156EE4510858166EE5510958176E14506B
:10394000D65D1550D7591650D8591750D95907E296
:1039500065DADF6E0901406B0D01010ED36FDF5098
:10396000146E020EE15C03E200D0E16AE552E16E02
:103970001450E552E7CFD9FF1200D9CFE6FFE1CFCF
:10398000D9FF070EE126020E0901405DEA6A000F29
:10399000E96E090EEA22EF50E66ED950010FE96E8A
:1039A000DACFEAFFE552E750EE6EED6A020E405DB7
:1039B000E66E96DBE552030EF3CFDBFF040EF4CF89
:1039C000DBFF010EDBCF14F0020EDBCF15F014C0CD
:1039D00015F0146A050E14C0DBFF060E15C0DBFFE0
:1039E00009014005EA6A000FE96E090EEA22EF506C
:1039F000146E156AD950050FE96EDACFEAFF14503C
:103A0000EE121550ED12030EDBCF14F0040EDBCFD7
:103A100015F0050EDB50141803E1060EDB501518E7
:103A20002EE1800E011580080EE1EACDE9FFEBCD15
:103A3000EAFF0E0EE926000EEA22EE2AEF22EED968
:103A4000030EDF6E1BD00151050A15E0030A13E0D7
:103A5000090A11E01F0A0FE0140A0BE0070A09E047
:103A6000020A05E0030A03E0D9D9DF6E07D017D8B0
:103A700005D0C6D803D045D9DF6E00D002D0CED94C
:103A8000DF6EDF50146E070EE15C03E200D0E16AE6
:103A9000E552E16E1450E552E7CFD9FF1200D9CFBD
:103AA000E6FFE1CFD9FF070EE126EACDE9FFEBCD36
:103AB000EAFF040EE926000EEA22EECF14F0EFCF63
:103AC00015F0040E0F0B05E0D89015321432E806FD
:103AD000FBE11450DF6E020EDF02010EF3CFDBFFBD
:103AE000020EDB6A030EF36EF3CFDBFFEACDE9FFD4
:103AF000EBCDEAFF040EE926000EEA22EECF14F029
:103B0000EFCF15F00001156A0F0E1416000ED880C5
:103B10001454000E155403E2DF2A010EDB2A010EB5
:103B2000DB500901025D61E1060EDB6ADF50F36ED6
:103B3000060EDBCFF4FFF350F45C55E2030EDB50CE
:103B4000EA6A000FE96E090EEA22EF50E66ED950DC
:103B5000040FE96EDACFEAFFE552E750EE6EED6A48
:103B6000020EDB2A010EDB50F36E020EDBCFF4FFF8
:103B7000F350F45C25E2030EDB28EA6A000FE96EDD
:103B8000090EEA22EF50000EF350166E176A040E6B
:103B9000DB501610146E050EDB501710156E040E58
:103BA00014C0DBFF050E15C0DBFF020EDB2A146E0E
:103BB000030EDBCFE7FF1450E726030EE7CFDBFF52
:103BC000060EDB50020D0D01EC51F324E96EED51B0
:103BD000F420EA6E040EDBCFEEFF050EDBCFEDFF27
:103BE000060EDB2AA3D773D901D018D9070EE15CE2
:103BF00002E2E16AE552E16EE552E7CFD9FF120039
:103C0000D9CFE6FFE1CFD9FF020EE126030EDF6E2A
:103C100009010251146E156AEACDE9FFEBCDEAFF06
:103C2000040EE926000EEA22EECF16F0EFCF17F0D1
:103C3000010ED89016361736E806FBE11650141818
:103C400002E11750151852E1010EDB6ADBCF14F0C8
:103C5000EACDE9FFEBCDEAFF040EE926000EEA22E9
:103C6000EECF15F0EFCF16F01550145C000E165481
:103C70003BE2DF28EA6A000FE96E090EEA22EFCF85
:103C800018F0DF50EA6A000FE96E090EEA22EF50E1
:103C9000000EF3501810E66E010EDB50166E176A18
:103CA000EACDE9FFEBCDEAFF060EE926000EEA2297
:103CB0001650EE24146E1750EE20156E010ED8909B
:103CC00014361536E806FBE10D01EC511424E96EBB
:103CD000ED511520EA6EE552E750EE6EED6A020EE8
:103CE000DF26010EDB2AB2D7F2D801D097D8020E18
:103CF000E15C02E2E16AE552E16EE552E7CFD9FF0D
:103D00001200D9CFE6FFE1CFD9FF050EE126010E63
:103D1000DF6EDB6A020EDB6A030EDB6A040EDB6A0F
:103D200009010251E66ED950010FE96EDACFEAFFC0
:103D3000E552E750EE6EED6AD950010FE96EDACF29
:103D4000EAFFEE50ED6EEF6A0351146E156AD9501A
:103D5000010FE96EDACFEAFF1450EE121550ED12A2
:103D60000451E66ED950030FE96EDACFEAFFE5524F
:103D7000E750EE6EED6AD950030FE96EDACFEAFF35
:103D8000EE50ED6EEF6A0551E66ED950030FE96E05
:103D9000DACFEAFFE552E750EE6EED6A010EDBCFB7
:103DA00014F0020EDBCF15F0EACDE9FFEBCDEAFF10
:103DB000E926000EEA22EECF16F0EFCF17F01650EC
:103DC000141802E11750151819E1030EDBCF18F093
:103DD000040EDBCF19F0EACDE9FFEBCDEAFFE926CF
:103DE000000EEA22EECF1AF0EFCF1BF01A5018188F
:103DF00002E11B50191802E16AD802D00FD8DF6E19
:103E0000DF50146E050EE15C03E200D0E16AE5527A
:103E1000E16E1450E552E7CFD9FF1200D9CFE6FF8B
:103E2000E1CFD9FFE652020EDF6EEACDE9FFEBCD1E
:103E3000EAFF100EE926000EEA22EE2AEF22EACD72
:103E4000E9FFEBCDEAFF0C0EE926000EEA22EE2A8E
:103E5000EF22EACDE9FFEBCDEAFF100EE926000ED6
:103E6000EA22EECF14F0EFCF15F00D01D451166E0B
:103E7000176A1650145C1750155814E3EACDE9FF81
:103E8000EBCDEAFF120EE926000EEA22EF6AEACD38
:103E9000E9FFEBCDEAFF100EEB6A110EEB6A040EA0
:103EA000DF6E02D0020EDF6E030ED36F5BEC2FF0DD
:103EB00006C0E2FD07C0E3FD08C0E4FD09C0E5FD62
:103EC000DF5000D0E552E552E7CFD9FF1200EACD2E
:103ED000E9FFEBCDEAFF0A0EE926000EEA22EE2A00
:103EE000EF22EACDE9FFEBCDEAFF120EE926000E44
:103EF000EA22EF6AEACDE9FFEBCDEAFF100EEB6AAA
:103F0000110EEB6A0D01030ED36F5BEC2FF006C0B0
:103F1000E2FD07C0E3FD08C0E4FD09C0E5FD1200B5
:103F2000D9CFE6FFE1CFD9FFFB0EDBCF07F0FC0EC8
:103F3000DBCF08F0FD0EDBCF09F0FE0EDBCF0AF081
:103F40000A34000E0A1809E6D880000E07544B0EFA
:103F50000854000E0954000E0A5406E20D01EE0E3C
:103F6000DE6F020EDF6F20D0200E146EC50E156EB0
:103F7000FB0E166E176A14C006F015C007F016C0C7
:103F800008F017C009F0DBCF0BF0FC0EDBCF0CF014
:103F9000FD0EDBCF0DF0FE0EDBCF0EF08BEC2FF025
:103FA00006C0DEFD07C0DFFD020E086E096ADECD29
:103FB0000DF0DFCD0EF0BFEC2FF006C0E0FD07C026
:103FC000E1FD0D01010ED36FF70EDBCFD6FDF80E2C
:103FD000DBCFD7FDF90EDBCFD8FDFA0EDBCFD9FD55
:103FE000F30EDBCFDAFDF40EDBCFDBFDF50EDBCF1E
:103FF000DCFDF60EDBCFDDFDF20EDBCFD4FDEE0EE9
:10400000DBCFE6FDEF0EDBCFE7FDF00EDBCFE8FD0B
:10401000F10EDBCFE9FDD950FB0FE96EFF0EDA2080
:10402000EA6EEECFE6FFEECFE6FFEECFE6FFEFCF94
:10403000E6FF0FEC28F0E552E552E552E552E55275
:10404000E7CFD9FF1200D9CFE6FFE1CFD9FFFD0EB0
:10405000DBCFE9FFFE0EDBCFEAFFFC0EDBCFEFFF8D
:10406000FD0EDBCFE9FFFE0EDBCFEAFFEE52FB0ECB
:10407000DBCFEFFFFD0EDBCFE9FFFE0EDBCFEAFF6C
:10408000020EE926000EEA22F90EDBCFEEFFFA0E51
:10409000DBCFEDFFFD0EDBCFE9FFFE0EDBCFEAFF4E
:1040A000040EE926000EEA22F70EDBCFEEFFF80E33
:1040B000DBCFEDFFFD0EDBCFE9FFFE0EDBCFEAFF2E
:1040C000120EE926000EEA22010EEF6EF50EDBCF8E
:1040D000ECFDF60EDBCFEDFDE552E7CFD9FF120088
:1040E000D9CFE6FFE1CFD9FF080EE126DE68DD6813
:1040F000060EDB6AFE0EDB50F36E060EDBCFF4FF1E
:10410000F350F45C4DE2060EDB50EA6A000FE96EF4
:10411000090EEA22EF50E76E000EDFCF14F0010E19
:10412000DBCF15F0E750141A14C0DEFF15C0DDFF19
:10413000010EF36E070EF3CFDBFFDB5008082DE313
:10414000DECF14F0DDCF15F0010E1416000E15169B
:10415000040E14C0DBFF050E15C0DBFFD9CFE9FF4D
:10416000DACFEAFF010E0F0B06E0EC52D890ED32E9
:10417000EF32E806FAE1D950040FE96EDACFEAFF30
:10418000EE50ED1007E0D9CFE9FFDACFEAFFEE708D
:10419000A00EED1A070EDB2AD0D7060EDB2AAAD70F
:1041A000DECF14F0DDCF15F015C014F0156A020E45
:1041B00014C0DBFF030E15C0DBFFDECF16F0DDCF32
:1041C00017F016C017F0166A020EDB501610146EA8
:1041D000030EDB501710156E14C0DEFF15C0DDFF97
:1041E000D9CFE9FFDACFEAFFDECF14F0DDCF15F04B
:1041F00014C0F3FF15C0F4FF080EE15C03E200D029
:10420000E16AE552E16EE552E7CFD9FF1200D9CF5E
:10421000E6FFE1CFD9FFE652DF6AFE0EDB50DF5C3E
:104220000DE2DF50EA6A000FE96E090EEA22EF5054
:10423000E66E8BEC28F0E552DF2AEFD7C3EC28F0CE
:10424000E0CD14F0E1CD15F00A0E0D6E0E6A14C02B
:1042500008F015C009F027EC32F008C014F009C0CE
:1042600015F0166A176A020ED890143615361636EF
:104270001736E806F9E11450E66E86EC32F0E552A6
:104280005BEC2FF006C0E2FD07C0E3FD08C0E4FDD3
:1042900009C0E5FDE552E552E7CFD9FF120009015B
:0642A000415100D01200A4
:0A42A600080EE66E98EC2BF0E552CE
:1042B000E66AA8EC26F0E55256EC26F069EF26F007
:1042C000D9CFE6FFE1CFD9FF060EE126DF68D9504E
:1042D000020FE66E000EDA20E66ED950030FE66E8E
:1042E000000EDA20E66EACEC2CF0E552E552E55219
:1042F000E552000901E1E9D2020EDBCFE6FF030E31
:10430000DBCFE6FFECDAE552E552DF6EFF0EDF5C55
:1043100001E1DBD20D010051060A01E1BED2030A20
:1043200001E174D2010A01E15AD20C0A01E123D25F
:104330000B0A01E1ECD1040A01E1B5D1050A01E162
:1043400021D1030A01E18AD0010A01E0BED2080EA0
:10435000DF5C0FE1235100080BE2DFCFE6FFAAECA0
:104360002BF0E5520D0123074751000801E24707F2
:1043700074D00A0EDF5C10E1235100080CE2DDEC82
:1043800025F0010EE66EA8EC26F0E55256EC26F07C
:104390000D01010E006F61D0130EDF5C0BE1090E01
:1043A000E66EA8EC26F0E55256EC26F00D01050E5F
:1043B000006F53D00C0EDF5C1CE1690EE66E0D0E33
:1043C000E66E86EC09F0E552E552FF0E0D01895DBF
:1043D0000FE0690EE66E0D0EE66E7AEC26F0E55201
:1043E000E55256EC26F069EC26F00D01080E006F40
:1043F00034D00B0EDF5C1CE1480EE66E0D0EE66E4F
:10440000D6EC03F0E552E552FF0E0D01685D0FE0BA
:10441000480EE66E0D0EE66E7AEC26F0E552E55299
:1044200056EC26F069EC26F00D01030E006F15D056
:104430002351EA6A020FE96E0D0EEA22DFCFEFFF89
:104440002351EA6A020FE96E0D0EEA22EF50E66E82
:10445000AAEC2BF0E5520D01232B37D2080EDF5CBE
:1044600016E12351000808E2DFCFE6FFAAEC2BF0AB
:10447000E5520D0123070AD0E66AA8EC26F0E552C2
:1044800056EC26F069EC26F00D01006B7AD0DF5077
:10449000360A65E0030A51E0010A3DE0070A29E017
:1044A000010A15E0030A01E06CD0020EE66EEEECA4
:1044B00026F0E5520D014751EA6A260FE96E0D0E0E
:1044C000EA22310EEF6E472B070E006F5AD0030E13
:1044D000E66EEEEC26F0E5520D014751EA6A260F32
:1044E000E96E0D0EEA22320EEF6E472B070E006FBB
:1044F00048D0040EE66EEEEC26F0E5520D01475171
:10450000EA6A260FE96E0D0EEA22330EEF6E472B94
:10451000070E006F36D0050EE66EEEEC26F0E55283
:104520000D014751EA6A260FE96E0D0EEA22340E9C
:10453000EF6E472B070E006F24D0060EE66EEEECF2
:1045400026F0E5520D014751EA6A260FE96E0D0E7D
:10455000EA22350EEF6E472B070E006F12D0070EC2
:10456000E66EEEEC26F0E5520D014751EA6A260FA1
:10457000E96E0D0EEA22360EEF6E472B070E006F26
:1045800000D0A3D1080EDF5C18E12351000808E237
:10459000DFCFE6FFAAEC2BF0E5520D0123070AD08E
:1045A000010EE66ED5DBE55281DB0D01020E476F91
:1045B000010E006F2469256B75D00A0EDF5C16E1D1
:1045C0002351000810E243DB260EE66E0D0EE66E68
:1045D0000EEC11F0E552E552E66ABADBE55266DB15
:1045E00078DB0D01006B2469256B5CD0030EDB507A
:1045F000245D3DE1140EF36E020EDBCFF4FFF350A9
:10460000F45C1DE223072351EA6A020FE96E0D0EE6
:10461000EA22DFCFEFFF080EE66EAAEC2BF0E552A0
:104620000D012351EA6A020FE96E0D0EEA22EF50E6
:10463000E66EAAEC2BF0E5520D01232B17D0235187
:10464000EA6A020FE96E0D0EEA22DFCFEFFF235177
:10465000EA6A020FE96E0D0EEA22EF50E66EAAEC4E
:104660002BF0E5520D01232B2469256B18D0235123
:10467000EA6A020FE96E0D0EEA22DFCFEFFF235147
:10468000EA6A020FE96E0D0EEA22EF50E66EAAEC1E
:104690002BF0E5520D01232B030EDBCF24FD030E7F
:1046A000DBCF24FD12D1080EDF5C0BE1010EE66EBC
:1046B0004FDBE552FBDA0D01020E476F010E006F72
:1046C00025D00A0EDF5C22E14705EA6A260FE96E73
:1046D0000D0EEA22EF50360809E1080EE66E38DBCF
:1046E000E552E4DA0D01020E006F10D0B0DA260EAA
:1046F000E66E0D0EE66E0EEC11F0E552E552E66A3E
:1047000027DBE552D3DAE5DA0D01006BDED0080EC7
:10471000DF5C08E1E66A1CDBE552C8DADADA0D0193
:10472000006B28D00B0EDF5C14E1480EE66E0D0E18
:10473000E66ED6EC03F0E552E552FF0E0D01685D22
:1047400007E0480EE66E0D0EE66ED4DAE552E5524D
:1047500011D00A0EDF5C0EE168CDE6FF41EC14F0EB
:10476000E5520D016869E66AF3DAE5529FDAB1DADB
:104770000D01006BAAD0080EDF5C08E1E66AE8DAFA
:10478000E55294DAA6DA0D01006B28D00C0EDF5C3E
:1047900014E1690EE66E0D0EE66E86EC09F0E55248
:1047A000E552FF0E0D01895D07E0690EE66E0D0E04
:1047B000E66EA0DAE552E55211D00A0EDF5C0EE19A
:1047C00089CDE6FF36EC0FF0E5520D018969E66A06
:1047D000BFDAE5526BDA7DDA0D01006B76D0080E98
:1047E000DF5C07E1E66AB4DAE55260DA0D01006BDE
:1047F0000CD00A0EDF5C09E174EC17F057DA69DAC5
:10480000E66AA6DAE5520D01006B5FD0080EDF5CA8
:1048100008E1E66A9DDAE55249DA5BDA0D01006BE0
:104820003BD00A0EDF5C29E1050EDB6A2351EA6A00
:10483000020FE96E0D0EEA22EF6A020EE66E0D0E11
:10484000E66E56EC17F0E552E552E76E050EE7CF3F
:10485000DBFFDB040AE10A0EE66E7ADAE55226DABD
:1048600038DA0D01060E006F07D0E66A71DAE552FC
:104870001DDA2FDA0D01006B0FD02351EA6A020F07
:10488000E96E0D0EEA22DFCFEFFF2A0EE66EAAECEC
:104890002BF0E5520D01232B18D0080EDF5C08E148
:1048A000E66A56DAE55202DA14DA0D01006B0CD032
:1048B000300EDF5C09E10B0EE66E4ADAE552F6D9FE
:1048C00008DA0D01040E006F00D0060EE15C02E272
:1048D000E16AE552E16EE552E7CFD9FF1200D9CF88
:1048E000E6FFE1CFD9FFE652DF680D010051060A6D
:1048F00001E116D1020A01E1FDD0010A01E1EBD08C
:104900000D0A01E1CFD00B0A01E1B3D0010A76E034
:10491000050A5EE0060A34E0010A01E01AD1FE0E43
:10492000DB50050DF3CFF6FFF4CFF7FF8C0EF62624
:10493000620EF7220800F550DF6E020E235D08E3D9
:10494000080EDF5C04E00A0EDF5C01E0DF6817D0D0
:104950002351000810E223510EE02A0EDF5C09E02B
:104960000B0EDF5C06E00C0EDF5C03E0130EDF5C79
:1049700001E1DF6804D02A0EDF5C01E1DF68E9D0E5
:10498000FE0EDB50050DF3CFF6FFF4CFF7FF8C0ED4
:10499000F626620EF7220800F550DF6E310EDF5C5E
:1049A00016E0320EDF5C13E0330EDF5C10E0340EF5
:1049B000DF5C0DE0350EDF5C0AE0360EDF5C07E001
:1049C000080EDF5C04E00A0EDF5C01E0DF68C1D0A6
:1049D000FE0EDB50050DF3CFF6FFF4CFF7FF8C0E84
:1049E000F626620EF7220800F550DF6E0A0EDF5C35
:1049F00004E0080EDF5C01E0DF68ABD0FE0EDB50A8
:104A0000245D10E1140EF36EFD0EDBCFF4FFF350C6
:104A1000F45C06E2252B050E255D01E3256B01D034
:104A2000256B01D0256BFE0EDB50050DF3CF14F086
:104A3000F4CF15F08C0E1426620E152225510F01AD
:104A40001424F66E000E1520F76E0800F550DF6E88
:104A50000C0EDF5C03E00B0EDF5C02E1DF6808D0C8
:104A60000A0EDF5C03E0080EDF5C02E10D01256B3E
:104A700070D0FE0EDB50050DF3CFF6FFF4CFF7FF3D
:104A80008C0EF626620EF7220800F550DF6E0A0E35
:104A9000DF5C07E0080EDF5C04E00B0EDF5C01E08A
:104AA000DF6857D0FE0EDB50050DF3CFF6FFF4CFD5
:104AB000F7FF8C0EF626620EF7220800F550DF6E27
:104AC0000A0EDF5C07E0080EDF5C04E00C0EDF5C22
:104AD00001E0DF683ED0FE0EDB50050DF3CFF6FFA0
:104AE000F4CFF7FF8C0EF626620EF7220800F55081
:104AF000DF6E2FD0FE0EDB50050DF3CFF6FFF4CFA7
:104B0000F7FF8C0EF626620EF7220800F550DF6ED6
:104B10000A0EDF5C04E0080EDF5C01E0DF6819D0FC
:104B2000FE0EDB50050DF3CFF6FFF4CFF7FF8C0E32
:104B3000F626620EF7220800F550DF6E300EDF5CBD
:104B400007E0080EDF5C04E00A0EDF5C01E0DF68CE
:104B500000D0DF5000D0E552E552E7CFD9FF120078
:104B6000D9CFE6FFE1CFD9FFFE0EDB50010A17E0F7
:104B7000030A0BE0020A01E01CD0E66AE9D8E5521C
:104B800095D8A7D80D01006B14D0080EE66EE0D8BA
:104B9000E5528CD89ED80D01020E006F0AD0010E8E
:104BA000E66ED6D8E55282D894D80D01010E006F7A
:104BB00000D0E552E7CFD9FF1200D9CFE6FFE1CF11
:104BC000D9FF020EE126010EDB6A0D01230513E178
:104BD0004751EA6A260FE96E0D0EEA22300EEF6E9B
:104BE000472B4751EA6A260FE96E0D0EEA2202CDE5
:104BF000EFFF472B12D04751EA6A260FE96E0D0EE0
:104C0000EA2202CDEFFF472B4751EA6A260FE96EF1
:104C10000D0EEA2203CDEFFF472B300E275D146EF9
:104C2000300E265D0A0DF3501424E76E010EE7CF17
:104C3000DBFFDB50146E020EE15C03E200D0E16AA0
:104C4000E552E16E1450E552E7CFD9FF1200D9CFFB
:104C5000E6FFE1CFD9FFE652DF6A0D012351DF5CA9
:104C600014E2DF50EA6A020FE96E0D0EEA22EF50FD
:104C7000E66E4751EA6A260FE96E0D0EEA22E5520A
:104C8000E750EF6E472BDF2AE8D74751EA6A260F35
:104C9000E96E0D0EEA22EF6A472B200E475D01E315
:104CA000476BE552E552E7CFD9FF1200200EE66EC2
:104CB000E66AE66A020EE66E0D0EE66E72EC2EF005
:104CC000146E050EE15E14500D01236B256B2469F3
:104CD0001200200EE66EE66AE66A260EE66E0D0EFD
:104CE000E66E72EC2EF0146E050EE15E14500D01AE
:104CF000476B1200D9CFE6FFE1CFD9FFE652A3EC14
:104D00002BF0DF6ADF50E76EFD0EDBCFE9FFFE0E12
:104D1000DBCFEAFFE750E926000EEA22EF5013E06E
:104D2000DF50E76EFD0EDBCFE9FFFE0EDBCFEAFFC3
:104D3000E750E926000EEA22EF50E66EAAEC2BF0CF
:104D4000E552DF2ADFD7E552E552E7CFD9FF12005F
:104D5000D9CFE6FFE1CFD9FF030EE126FE0EEA6AC6
:104D6000DB34FE0BEA36E96E000EE9260F0EEA226E
:104D7000010EEECFDBFF020EEDCFDBFFA3EC2BF03D
:104D8000DF6ADF50E76E010EDBCFF6FF020EDBCFEE
:104D9000F7FFE750F626000EF7220800F55014E062
:104DA000DF50E76E010EDBCFF6FF020EDBCFF7FF21
:104DB000E750F626000EF7220800F550E66EAAEC42
:104DC0002BF0E552DF2ADDD7030EE15C02E2E16A57
:104DD000E552E16EE552E7CFD9FF1200D9CFE6FFE9
:104DE000E1CFD9FF030EE126FE0EEA6ADB34FE0BAB
:104DF000EA36E96E000EE9260F0EEA22010EEECF2A
:104E0000DBFF020EEDCFDBFFDF6ADF50E76E010E46
:104E1000DBCFF6FF020EDBCFF7FFE750F626000EE2
:104E2000F7220800F55014E0DF50E76E010EDBCFEB
:104E3000F6FF020EDBCFF7FFE750F626000EF72253
:104E40000800F550E66EAAEC2BF0E552DF2ADDD71C
:104E5000030EE15C02E2E16AE552E16EE552E7CF62
:044E6000D9FF120064
:0C4E6400DACFE4FFE2CFDAFFE9CFE4FF91
:104E7000EACFE4FFF6CFE4FFF7CFE4FFF5CFE4FF9E
:104E8000F3CFE4FFF4CFE4FFFACFE4FF00EE00F04D
:104E9000140EE80403E3EECFE4FFFBD700EE14F0BA
:104EA000080EE80403E3EECFE4FFFBD7E652D9CFC8
:104EB000E6FFE1CFD9FFE65292EC31F0DF6E0C0154
:104EC0008951892BEA6A8C0FE96E0C0EEA22DFCF3A
:104ED000EFFF800E895D01E3896B8B2BA49AE5526D
:104EE000E552E7CFD9FFE55200EE1BF0080EE804CB
:104EF00003E3E5CFEDFFFBD700EE13F0140EE8045B
:104F000003E3E5CFEDFFFBD7E5CFFAFFE5CFF4FFF5
:104F1000E5CFF3FFE5CFF5FFE5CFF7FFE5CFF6FFF0
:104F2000E5CFEAFFE5CFE9FFE5CFDAFF1100DACF01
:104F3000E4FFE2CFDAFFE9CFE4FFEACFE4FFE65295
:104F4000D9CFE6FFE1CFD9FFE6520B01025104E1D0
:104F5000ACA2FED7AC9A1BD00151EA6A030FE96EEE
:104F60000B0EEA22EFCFDFFFDF50AD6E012B800E7C
:104F7000015D01E3016B000EE76E0219E8AE02D09D
:104F8000023503D0E750D880025501E20207E5520E
:104F9000E552E7CFD9FFE552E5CFEAFFE5CFE9FFDC
:104FA000E5CFDAFF1100DACFE4FFE2CFDAFFE9CF95
:104FB000E4FFEACFE4FFE652D9CFE6FFE1CFD9FF25
:104FC000E6520C01085104E172A2FED7729A1BD07E
:104FD0000751EA6A090FE96E0C0EEA22EFCFDFFFF4
:104FE000DF50736E072B800E075D01E3076B000E29
:104FF000E76E0819E8AE02D0083503D0E750D88034
:10500000085501E20807E552E552E7CFD9FFE5521E
:10501000E5CFEAFFE5CFE9FFE5CFDAFF1100D9CF11
:10502000E6FFE1CFD9FFE6527C0EDF6ED950FB0FD1
:10503000E96EFF0EDA20EA6EEE2A000EEE22EE2274
:10504000EE22D950FB0FE96EFF0EDA20EA6E040E55
:10505000E76ED890EF36010EEB36020EEB36030EFC
:10506000EB36E706F6E1146A240E156EF40E166EA2
:10507000176A14C006F015C007F016C008F017C074
:1050800009F0FB0EDBCF0BF0FC0EDBCF0CF0FD0EBE
:10509000DBCF0DF0FE0EDBCF0EF06EEC31F0FB0E31
:1050A00006C0DBFFFC0E07C0DBFFFD0E08C0DBFF08
:1050B000FE0E09C0DBFFFB0EDBCFE6FFFC0EDBCFF5
:1050C000E6FFDFCFE6FFDFEC30F0E552E552E552D8
:1050D000AC8AAC9EE552E552E7CFD9FF1200D9CF9A
:1050E000E6FFE1CFD9FFE6527C0EDF6E670EE66E7B
:1050F000E66ADFCFE6FF68EC30F0E552E552E552B4
:10510000D08E718E728A729EA38AA58AE552E5526C
:10511000E7CFD9FF1200D9CFE6FFE1CFD9FFACA28C
:10512000FED70B010051002BEA6A030FE96E0B0E4C
:10513000EA22FE0EDBCFEFFF022B800E005D01E3C3
:10514000006B010E00D0E552E7CFD9FF1200D9CF96
:10515000E6FFE1CFD9FF72A2FED70C010651062B64
:10516000EA6A090FE96E0C0EEA22FE0EDBCFEFFFB2
:10517000082B800E065D01E3066B010E00D0E552A0
:10518000E7CFD9FF1200D9CFE6FFE1CFD9FF060E56
:10519000E126010EF36E020EF3CFDBFF030EDB6A96
:1051A000020EDBCF14F0DB06030EDBCF15F001E2BD
:1051B000DB061450151006E0040EE66E3DEC32F0EE
:1051C000E552EED7000E0B01E76E0219E8AE02D0F1
:1051D000023503D0E750D880025523E20151EA6A34
:1051E000030FE96E0B0EEA22010EEFCFDBFFACA23C
:1051F000FED7010EDB50AD6EACA2FED70B01012B2A
:10520000800E015D01E3016B000EE76E0219E8AE4E
:1052100002D0023503D0E750D880025501E20207E0
:10522000D1D7010EF36E040EF3CFDBFF050EDB6A60
:10523000040EDBCF14F0DB06050EDBCF15F001E228
:10524000DB061450151006E0040EE66E3DEC32F05D
:10525000E552EED7146E060EE15C02E2E16AE55219
:10526000E16E1450E552E7CFD9FF1200D9CFE6FF27
:10527000E1CFD9FF060EE126010EF36E020EF3CF49
:10528000DBFF030EDB6A020EDBCF14F0DB06030E3E
:10529000DBCF15F001E2DB061450151006E0040E1A
:1052A000E66E3DEC32F0E552EED7000E0C01E76EF3
:1052B0000819E8AE02D0083503D0E750D880085569
:1052C00023E20751EA6A090FE96E0C0EEA22010E89
:1052D000EFCFDBFF72A2FED7010EDB50736E72A21E
:1052E000FED70C01072B800E075D01E3076B000E54
:1052F000E76E0819E8AE02D0083503D0E750D88031
:10530000085501E20807D1D7010EF36E040EF3CF62
:10531000DBFF050EDB6A040EDBCF14F0DB06050EA7
:10532000DBCF15F001E2DB061450151006E0040E89
:10533000E66E3DEC32F0E552EED7146E060EE15CFF
:1053400002E2E16AE552E16E1450E552E7CFD9FF7F
:105350001200D9CFE6FFE1CFD9FFE652DF6AA39A68
:10536000000E0C01E76E8B19E8AE02D08B3503D02E
:10537000E750D8808B5502E2010EDF6EA38ADF5022
:1053800000D0E552E552E7CFD9FF1200D9CFE6FFB2
:10539000E1CFD9FFE652DF6A9D9A000E0B01E76E5E
:1053A0008519E8AE02D0853503D0E750D880855501
:1053B00002E2010EDF6E9D8ADF5000D0E552E55219
:1053C000E7CFD9FF1200D9CFE6FFE1CFD9FFE652F0
:1053D0009D9A0B018451842BEA6A860FE96E0B0EAD
:1053E000EA22EFCFDFFF800E845D01E3846B000EC5
:1053F000E76E8519E8AE02D0853503D0E750D88036
:10540000855501E285079D8ADF5000D0E552E552BF
:10541000E7CFD9FF1200D9CFE6FFE1CFD9FFE6529F
:10542000A39A0C018A518A2BEA6A8C0FE96E0C0E42
:10543000EA22EFCFDFFF800E8A5D01E38A6B000E68
:10544000E76E8B19E8AE02D08B3503D0E750D880D9
:105450008B5501E28B079D8ADF5000D0E552E55263
:06546000E7CFD9FF1200A6
:0A546600D9CFE6FFE1CFD9FF030E16
:10547000E126300EF36E010EF3CFDBFF750EF36EF7
:10548000020EF3CFDBFF010EDF6EDF0425E105DA4C
:1054900000000000839283840000000083860000E7
:1054A00000008350800B01E0010EDF6E839683863F
:1054B000000000008396010EDB06020E01E2DB060F
:1054C000D950010FE96EDACFEAFFEE50ED1003E19B
:1054D000ECD9FF0E04D0D9D7E8D9000E00D0146E55
:1054E000030EE15C02E2E16AE552E16E1450E5521E
:1054F000E7CFD9FF1200D9CFE6FFE1CFD9FF8392E2
:1055000083940000FE0EDB50F00B146E0F0E8C1413
:1055100014108C6E00008386000000008396E55214
:10552000E7CFD9FF1200D9CFE6FFE1CFD9FF9BDF4C
:10553000839283940000FE0EDB50F00B146E0F0E6E
:105540008C1414108C6E000083860000000083967B
:10555000FE0EDB38F00BF00B146E0F0E8C141410D3
:105560008C6E00008386000000008396E552E7CF32
:10557000D9FF1200D9CFE6FFE1CFD9FF74DF8382D4
:1055800083940000FE0EDB50F00B146E0F0E8C1493
:1055900014108C6E00008386000000008396FE0EBF
:1055A000DB38F00BF00B146E0F0E8C1414108C6E95
:1055B00000008386000000008396E552E7CFD9FF04
:1055C0001200D9CFE6FFE1CFD9FF0B0EE1266DD94E
:1055D000280EF36E010EF3CFDBFF020EDB6A010E25
:1055E000DBCF14F0DB06020EDBCF15F001E2DB06A9
:1055F0001450151006E0040EE66E3DEC32F0E55254
:10560000EED7300EE66E77DFE5520A0EF36E030E2C
:10561000F3CFDBFF040EDB6A030EDBCF14F0DB06F7
:10562000040EDBCF15F001E2DB061450151006E086
:10563000040EE66E3DEC32F0E552EED7300EE66E2B
:105640005ADFE5520A0EF36E050EF3CFDBFF060EAE
:10565000DB6A050EDBCF14F0DB06060EDBCF15F0A0
:1056600001E2DB061450151006E0040EE66E3DEC78
:1056700032F0E552EED7300EE66E3DDFE5520A0E0F
:10568000F36E070EF3CFDBFF080EDB6A070EDBCFEE
:1056900014F0DB06080EDBCF15F001E2DB06145038
:1056A000151006E0040EE66E3DEC32F0E552EED742
:1056B000200EE66E20DFE5520A0EF36E090EF3CFE0
:1056C000DBFF0A0EDB6A090EDBCF14F0DB060A0EE5
:1056D000DBCF15F001E2DB061450151006E0040ED6
:1056E000E66E3DEC32F0E552EED7280EE66E1BDF9B
:1056F000E552B9DEDF6EDF5010E10F0EE66E13DF0C
:10570000E552010EE66E0FDFE552040EE66E0BDF8A
:10571000E552060EE66E07DFE5520B0EE15C03E292
:1057200000D0E16AE552E16EE552E7CFD9FF120001
:10573000D9CFE6FFE1CFD9FFFE0EDBCF1FFEE5524A
:10574000E7CFD9FF1200010EE66EEDDEE5520E0145
:105750001E6B1200D9CFE6FFE1CFD9FFE652FE0E55
:10576000DB500E011F5D23E11E5101E137D0100E09
:105770001E5D0EE1800EE66ED6DEE552DF6A100E8B
:10578000DF5C06E2140EE66ECEDEE552DF2AF7D7C6
:10579000100EE66EC8DEE552200EE66EEBDEE55238
:1057A000100EE66EC0DEE5520E011E0717D0100E79
:1057B0001E5D05E1C00EE66EB6DEE55208D0200E95
:1057C0001E5D05E31E6B020EE66EADDEE552FE0EBB
:1057D000DBCFE6FFCFDEE5520E011E2BE552E55290
:1057E000E7CFD9FF1200EDDE010EE66E9CDEE5523A
:1057F0000E011E6B1200D9CFE6FFE1CFD9FFE652B2
:10580000010EE66E90DEE552DF6A100EDF5C1CE2F0
:10581000FD0EDBCFE9FFFE0EDBCFEAFFEF50E66EB9
:10582000DF50EA6A200FE96E0E0EEA22E552E750D9
:10583000EF6EFD0EDBCFE9FFDB2AFE0EDBCFEAFFCA
:1058400001E3DB2ADF2AE1D7C00EE66E6CDEE5520B
:10585000DF6A100EDF5C1CE2FD0EDBCFE9FFFE0EFF
:10586000DBCFEAFFEF50E66EDF50EA6A200FE96E09
:105870000E0EEA22E552E750EF6EFD0EDBCFE9FF98
:10588000DB2AFE0EDBCFEAFF01E3DB2ADF2AE1D7CA
:10589000E552E552E7CFD9FF1200958E958C958A97
:1058A00095889596959495921200959E959C959ABB
:0A58B0009598959695949592120034
:0658BA000D01CD6BCE6B69
:1058C0009E6B9F6BA06BA169A26B1200D9CFE6FF04
:1058D000E1CFD9FF020EE1260D01D02B000ED1231E
:1058E000D9CFE6FFDACFE6FF7ED8E552E5520009D0
:1058F00001E128D00D01CD51CE5D02E1CE6BCD6B23
:10590000CE51E96EEA6AD890E936EA36A30EE92666
:105910000D0EEA22DFCFEFFFCE51E96EEA6AD89092
:10592000E936EA36A30EE9260D0EEA22010EE92633
:10593000000EEA22D0CDEFFF140ECE5D01E2CE2B99
:10594000D06BD16B020EE15C02E2E16AE552E16EDE
:10595000E552E7CFD9FF1200D9CFE6FFE1CFD9FF5B
:105960000D01CE51CD5D31E2CD51E96EEA6AD8909C
:10597000E936EA36A30EE9260D0EEA22EF50E66E6E
:10598000FD0EDBCFE9FFFE0EDBCFEAFFE552E7506D
:10599000EF6ECD51E96EEA6AD890E936EA36A30E89
:1059A000E9260D0EEA22010EE926000EEA22EF504A
:1059B000E66EFB0EDBCFE9FFFC0EDBCFEAFFE55224
:1059C000E750EF6ECD2B010E02D0000E00D0E55255
:1059D000E7CFD9FF12000D01CE6BCD6B9E6B9F6B95
:1059E000A06BA1691200D9CFE6FFE1CFD9FFE65243
:1059F000DF68010E146E8150800B01E0010E145C13
:105A00006FE18150200B01E0010E166E8150040BF6
:105A100001E0010EE824156E8150100B01E0010E2B
:105A2000040DF3CF14F08150080B01E0010E080DB6
:105A3000F3501410151016100F0BDF6EDF500F0A05
:105A40004CE0010A47E0030A42E0010A3DE0070A90
:105A500038E0010A33E0030A2FE0010A2AE00F0AC6
:105A600025E0010A20E0030A1BE0010A16E0070A0C
:105A700011E0010A0CE0030A07E0010A02E0DF6816
:105A80002FD0050EDF6E2CD0060EDF6E29D0090E4A
:105A9000DF6E26D00A0EDF6E23D0020EDF6E20D01E
:105AA000010EDF6E1DD0030EDF6E1AD0070EDF6E03
